:020000040000fa
:080000000002040000000000f2
:020000040000fa
:04000800bc05000033
:020000040000fa
:04000c00bc0500002f
:020000040000fa
:04001000bc0500002b
:020000040000fa
:04001400bc05000027
:020000040000fa
:04001800bc05000023
:020000040000fa
:04001c00bc0500001f
:020000040000fa
:04002000bc0500001b
:020000040000fa
:04002400bc05000017
:020000040000fa
:04002800bc05000013
:020000040000fa
:04002c00bc0500000f
:020000040000fa
:04003000bc0500000b
:020000040000fa
:04003400bc05000007
:020000040000fa
:04003800bc05000003
:020000040000fa
:04003c00bc050000ff
:020000040000fa
:04004000bc050000fb
:020000040000fa
:04004400c8020000ee
:020000040000fa
:040048004e03000063
:020000040000fa
:04004c00bc050000ef
:020000040000fa
:04005000bc050000eb
:020000040000fa
:04005400bc050000e7
:020000040000fa
:04005800bc050000e3
:020000040000fa
:04005c009c04000000
:020000040000fa
:04006000bc050000db
:020000040000fa
:04006400bc050000d7
:020000040000fa
:04006800bc050000d3
:020000040000fa
:04006c00bc050000cf
:020000040000fa
:04007000bc050000cb
:020000040000fa
:040074006005000023
:020000040000fa
:04007800bc050000c3
:020000040000fa
:04007c00bc050000bf
:020000040000fa
:04008000bc050000bb
:020000040000fa
:04008400bc050000b7
:020000040000fa
:04008800bc050000b3
:020000040000fa
:04008c00bc050000af
:020000040000fa
:04009000bc050000ab
:020000040000fa
:04009400bc050000a7
:020000040000fa
:040098006c030000f5
:020000040000fa
:04009c00bc0500009f
:020000040000fa
:0400a000bc0500009b
:020000040000fa
:0400a400260400002e
:020000040000fa
:0400a800bc05000093
:020000040000fa
:0400ac00bc0500008f
:020000040000fa
:0400b000bc0500008b
:020000040000fa
:0400b400bc05000087
:020000040000fa
:0400b800bc05000083
:020000040000fa
:0400bc00bc0500007f
:020000040000fa
:0400c000bc0500007b
:020000040000fa
:0400c400bc05000077
:020000040000fa
:0400c800bc05000073
:020000040000fa
:0400cc00bc0500006f
:020000040000fa
:0400d000bc0500006b
:020000040000fa
:0400d400bc05000067
:020000040000fa
:0400d800bc05000063
:020000040000fa
:0400dc00bc0500005f
:020000040000fa
:0400e000bc0500005b
:020000040000fa
:0400e400bc05000057
:020000040000fa
:0400e800040400000c
:020000040000fa
:0400ec00bc0500004f
:020000040000fa
:0400f000bc0500004b
:020000040000fa
:0400f400bc05000047
:020000040000fa
:0400f80014040000ec
:020000040000fa
:0400fc00bc0500003f
:020000040000fa
:04010000bc0500003a
:020000040000fa
:04010400bc05000036
:020000040000fa
:04010800bc05000032
:020000040000fa
:04010c00bc0500002e
:020000040000fa
:04011000bc0500002a
:020000040000fa
:04011400bc05000026
:020000040000fa
:04011800bc05000022
:020000040000fa
:04011c00bc0500001e
:020000040000fa
:04012000bc0500001a
:020000040000fa
:04012400bc05000016
:020000040000fa
:04012800bc05000012
:020000040000fa
:04012c00bc0500000e
:020000040000fa
:04013000bc0500000a
:020000040000fa
:04013400bc05000006
:020000040000fa
:04013800bc05000002
:020000040000fa
:04013c00bc050000fe
:020000040000fa
:04014000bc050000fa
:020000040000fa
:04014400bc050000f6
:020000040000fa
:04020800bc05000031
:020000040000fa
:04020c00bc0500002d
:020000040000fa
:04021000bc05000029
:020000040000fa
:04021400bc05000025
:020000040000fa
:04021800bc05000021
:020000040000fa
:04021c00bc0500001d
:020000040000fa
:04022000bc05000019
:020000040000fa
:04022400bc05000015
:020000040000fa
:04022800bc05000011
:020000040000fa
:04022c00bc0500000d
:020000040000fa
:04023000bc05000009
:020000040000fa
:04023400bc05000005
:020000040000fa
:04023800bc05000001
:020000040000fa
:04023c00bc050000fd
:020000040000fa
:04024000bc050000f9
:020000040000fa
:04024400c8020000ec
:020000040000fa
:040248004e03000061
:020000040000fa
:04024c00bc050000ed
:020000040000fa
:04025000bc050000e9
:020000040000fa
:04025400bc050000e5
:020000040000fa
:04025800bc050000e1
:020000040000fa
:04025c009c040000fe
:020000040000fa
:04026000bc050000d9
:020000040000fa
:04026400bc050000d5
:020000040000fa
:04026800bc050000d1
:020000040000fa
:04026c00bc050000cd
:020000040000fa
:04027000bc050000c9
:020000040000fa
:040274006005000021
:020000040000fa
:04027800bc050000c1
:020000040000fa
:04027c00bc050000bd
:020000040000fa
:04028000bc050000b9
:020000040000fa
:04028400bc050000b5
:020000040000fa
:04028800bc050000b1
:020000040000fa
:04028c00bc050000ad
:020000040000fa
:04029000bc050000a9
:020000040000fa
:04029400bc050000a5
:020000040000fa
:040298006c030000f3
:020000040000fa
:04029c00bc0500009d
:020000040000fa
:0402a000bc05000099
:020000040000fa
:0402a400260400002c
:020000040000fa
:0402a800bc05000091
:020000040000fa
:0402ac00bc0500008d
:020000040000fa
:0402b000bc05000089
:020000040000fa
:0402b400bc05000085
:020000040000fa
:0402b800bc05000081
:020000040000fa
:0402bc00bc0500007d
:020000040000fa
:0402c000bc05000079
:020000040000fa
:0402c400bc05000075
:020000040000fa
:0402c800bc05000071
:020000040000fa
:0402cc00bc0500006d
:020000040000fa
:0402d000bc05000069
:020000040000fa
:0402d400bc05000065
:020000040000fa
:0402d800bc05000061
:020000040000fa
:0402dc00bc0500005d
:020000040000fa
:0402e000bc05000059
:020000040000fa
:0402e400bc05000055
:020000040000fa
:0402e800040400000a
:020000040000fa
:0402ec00bc0500004d
:020000040000fa
:0402f000bc05000049
:020000040000fa
:0402f400bc05000045
:020000040000fa
:0402f80014040000ea
:020000040000fa
:0402fc00bc0500003d
:020000040000fa
:04030000bc05000038
:020000040000fa
:04030400bc05000034
:020000040000fa
:04030800bc05000030
:020000040000fa
:04030c00bc0500002c
:020000040000fa
:04031000bc05000028
:020000040000fa
:04031400bc05000024
:020000040000fa
:04031800bc05000020
:020000040000fa
:04031c00bc0500001c
:020000040000fa
:04032000bc05000018
:020000040000fa
:04032400bc05000014
:020000040000fa
:04032800bc05000010
:020000040000fa
:04032c00bc0500000c
:020000040000fa
:04033000bc05000008
:020000040000fa
:04033400bc05000004
:020000040000fa
:04033800bc05000000
:020000040000fa
:04033c00bc050000fc
:020000040000fa
:04034000bc050000f8
:020000040000fa
:04034400bc050000f4
:020000040000fa
:10040000cf9a20000e7f24000e018800000000001b
:10041000000020000000e000020032000001200087
:100420002002880014000700d50107000000e0004a
:1004300003003a00a0d22000010020000200370093
:100440000000200001002000810f70000100320038
:1004500014000700000020000000e000020032004d
:100460000000020000000000e20e02000000000098
:100470000040da000000fe004440a90040002000d7
:100480000000e0000300320000002000a00188000e
:100490004440a800000006008a1f78008b1f7800e7
:1004a0000000060091018800800478000000eb0045
:1004b0001a003700e284440032a0b4009905ba0063
:1004c000e284440032a0b4009906ba00e2844400f9
:1004d00032a0b4000006eb00476fde00fd07b2005b
:1004e000636ce10003003a00ebff07000000eb0043
:1004f0000a003700606ce10004003a00005deb0088
:100500008b05e900fdff3e00040037006168e10053
:10051000010032000086eb000b00070019c7ba008b
:100520001905ba000e04e00003003a000a00e000da
:10053000e0ff3a0000000600fe07b2009e018800be
:100540008a047800f5ff3700395dba008b05e900b1
:100550000c003200295dba008b05e900080032006a
:100560000c00e00003003a00e284440032a0b40032
:10057000f5ff370019ddba008b05e900faff3a00f4
:100580008904e800e184440032a0b40000000600c1
:10059000809fbe000000fa00604080000000e00084
:1005a00036003200e10f500039003a005040800020
:1005b000e10f500011003200e10f5000050039003a
:1005c000e20f500017003200e30f50001f0032000e
:1005d0002f003700d602a900600880004040880044
:1005e000d622a800e04080006008880050408000cb
:1005f0000000e800504088001f003700d622a90004
:100600006008800040408800d642a800f04080008a
:1006100060088800504080000000e80050408800da
:1006200015003700d642a9006008800040408800cd
:10063000d662a80000418000600888005040800019
:100640000000e800504088000b003700d662a90087
:10065000600880004040880060088000f1342c0071
:1006600000805000600888000828ef000a28ef008a
:100670000c28ef000000000005003700d602a8009b
:10068000d040800060088800100020006040880092
:100690000080fa004f00be00004006003600f8005f
:1006a000809fbe00829fbe00849fbe00869fbe00ca
:1006b0000000fa00660607008500a9000080fa0025
:1006c0004f03be004f02be004f01be004f00be00f0
:1006d0003600f900004006003600f800809fbe009a
:1006e000829fbe00849fbe00869fbe000000fa006d
:1006f00020408000e10f50000d003200e10f50005b
:1007000005003900e20f50001c003200e30f5000da
:10071000200032003400370000c8b3005105070044
:10072000204080000000e800204088002e003700b4
:1007300070408000324080007200b90000007800f4
:1007400002004000c1822000614078005b05070084
:10075000304080000000e8003040880030408000d9
:10076000f00f50001d003a000628ef0020408000e6
:100770000000e800204088001b00370000ccb300d8
:1007800038050700204080000000e8002040880075
:1007900015003700704080000000e8003240800003
:1007a0007200b9000000780002004000c182200001
:1007b0006140780041050700304080000000e800fb
:1007c0003040880030408000f00f500005003a00b3
:1007d0000628ef000428ef000300370000000000a7
:1007e00001003700000000008780a9000080fa00a7
:1007f0004f03be004f02be004f01be004f00be00bf
:100800003600f90000400600801f78000000fa0062
:1008100010002000104088008a00a9000080fa0023
:100820004f00780000400600801f78000000fa00aa
:1008300010002000004088003de1a9008a80a90046
:100840000080fa004f00780000400600809fbe0044
:10085000821f78000000fa00804080000000e00065
:1008600010003a0090408000215c28006140780030
:100870000000fb00a0118800904080000000e8000c
:100880009040880090408000e30f500025003a001f
:100890001228ef00804080000000e80080408800bf
:1008a00020003700a0408000b24080007200b900f4
:1008b0000000780002004000c18220006140780002
:1008c0000080fb00a0118800b04080000000e8001c
:1008d000b0408800a0408000ef0f500008003200b8
:1008e000b0408000f20f500005003a00a0408000a8
:1008f0000000e800a04088001628ef00090037003b
:10090000a0408000ef0f500006003a00b040800089
:10091000f20f500003003a001028ef001628ef00f5
:100920001428ef0087e0a9000080fa004f0178004a
:100930004f00be0000400600809fbe00821f78006e
:100940000000fa00204180000000e00057003a005b
:1009500040198000004078007f4060000080fb006c
:10096000e20f500024003200e20f500005003c006e
:100970000000e00008003200e10f500012003200d9
:100980004a003700e40f500027003200e50f500006
:10099000310032004500370010418000011880000e
:1009a00000014000c09620000000410001087800ce
:1009b0004119800000fe2f00008060000000a000b0
:1009c000401988003900370010418000011880006c
:1009d00000014000c097200000004100010878009d
:1009e0004119800000fe2f00008060000010a00070
:1009f000401988002d003700104180000118800048
:100a000000014000c098200000004100010878006b
:100a10004119800000fe2f00008060000020a0002f
:100a20004019880021003700104180000118800023
:100a300000014000c095200000004100010878003e
:100a40004119800000fe2f00008060005000b300bc
:100a500040198800150037001041800001188000ff
:100a600000014000c094200000004100010878000f
:100a700010418000e70f5000040032001041800058
:100a80000000e80010418800030037002228ef0032
:100a900010002000204188004119800000fe2f0036
:100aa00000806000401988000000000085a0a900b7
:100ab0000080fa004f0178004f00be0000400600a1
:100ac000809fbe000000fa00a116800000042000f4
:100ad000008060000000e00006003a0070408000e6
:100ae000e70f500003003200704080000000e80073
:100af00070408800a116800000082000008060007f
:100b00000000e00006003a00704080000000e000b5
:100b100003003200704080000000e900704088004f
:100b20001116800000082000008060000000e00036
:100b300006003a005041800000f0a7000000ea00e3
:100b40000000e9004f00de005041880040168000a0
:100b5000680060000000e00001003a0000000000b2
:100b600000000000000000008660a9000080fa007c
:100b70004f00be00004006000040da000000fe000a
:040b8000000005006c
:020000040000fa
:080b84001b5b000048000000ab
:020000040000fa
:100b8c000000fa00500c20002010880000202100ea
:100b9c003010880007e2a8000080fa000000060070
:100bac000200fa000602a8000000eb00000f78001b
:100bbc00010037001e0fe80030108000610060005b
:100bcc000000e00004003200703e20009e0078001f
:100bdc00808f5000f7ff3600703e20009e0078009a
:100bec00808f5000020036001000200001003700fa
:100bfc000000eb000080fa00000006000200fa0082
:100c0c000622a8000000eb00000f7800010037005e
:100c1c001e0fe80030108000620060000000e00051
:100c2c0004003200703e20009e007800808f50003f
:100c3c00f7ff3600703e20009e007800808f500039
:100c4c000200360010002000010037000000eb000d
:100c5c000080fa00000006000200fa000642a8001c
:100c6c000000eb00000f7800010037001e0fe800b9
:100c7c0030108000640060000000e00004003200ce
:100c8c00703e20009e007800808f5000f7ff3600e9
:100c9c00703e20009e007800808f500002003600cd
:100cac0010002000010037000000eb000080fa006b
:100cbc00000006000200fa000000eb00000f7800b4
:100ccc00010037001e0fe8004110800000002400d6
:100cdc00008060000000e00004003200703e200044
:100cec009e007800808f5000f6ff3600703e20008a
:100cfc009e007800808f500002003600100020000b
:100d0c00010037000000eb000080fa000000060034
:100d1c000400fa00204798002e4090000080fb0051
:100d2c00101088000000eb00000f78000100370065
:100d3c001e0fe80040108000610060000000e00021
:100d4c0004003200703e20009e007800808f50001e
:100d5c00f7ff3600703e20009e007800808f500018
:100d6c000200360010002000010037000000eb00ec
:100d7c000080fa00000006000400fa00100798003a
:100d8c000000eb00000f7800010037001e0fe80098
:100d9c004110800000002400008060000000e00092
:100dac0004003200703e20009e007800808f5000be
:100dbc00f6ff3600703e20009e007800808f5000b9
:100dcc0002003600100020000700370040108000a1
:100ddc004f00de00004078008080fb001e00900079
:100dec00010878000000eb000080fa00000006000b
:100dfc000200fa0006a2a8000682a8000000eb0080
:100e0c00000f7800010037001e0fe8003010800042
:100e1c00700060000000e00004003200703e200012
:100e2c009e007800808f5000f7ff3600703e200047
:100e3c009e007800808f50000200360010002000c9
:100e4c00010037000000eb000080fa0000000600f3
:100e5c000200fa0006a2a9000682a8000000eb001e
:100e6c00000f7800010037001e0fe80030108000e2
:100e7c00700060000000e00004003200703e2000b2
:100e8c009e007800808f5000f7ff3600703e2000e7
:100e9c009e007800808f5000020036001000200069
:100eac00010037000000eb000080fa000000060093
:100ebc000400fa00100798000662a8000000eb007e
:100ecc00000f7800010037001e0fe8004010800072
:100edc006200600000f0a7000000ea000000e900da
:100eec004f00de008040780010c0b300723e20003e
:100efc009e017800828f5100010034000040eb000d
:100f0c0000c060000004e000efff3a00703e2000db
:100f1c009e007800808f50000200340010002000ea
:100f2c000500370000108000804078001e00900003
:100f3c00014878000000eb000080fa000000060079
:100f4c000400fa00000f7800214798000f003700ca
:100f5c001e007800d6ff07000000e00002003200ff
:100f6c0010002000140037001e0fe8002e409000e7
:100f7c000004e00005003200b5ff07000000e000af
:100f8c0002003200200020000b0037002e409000a1
:100f9c000080fb000000ea004f00de0000407800fb
:100fac00ae4090008140e900214798000004e00029
:100fbc00e7ff3a000000eb000080fa00000006009a
:100fcc000800fa0020479800314798002207980043
:100fdc006347980037ff07000000e0000200320072
:100fec001000200041003700edfe07000000e0007b
:100ffc0002003200200020003c0037002e40900000
:10100c0043ff07000000e000020032003000200027
:10101c00360037000e00780057ff07000000e00094
:10102c000200320040002000300037003e409000ab
:10103c0037ff07000000e000020032003000200003
:10104c002a0037000e0078004bff07000000e0007c
:10105c00020032004000200024003700e7fe0700a9
:10106c000000e00002003200600020001f0037008a
:10107c002e4090000004a00025ff07000000e000b7
:10108c000200320030002000180037000e007800fb
:10109c0039ff07000000e000020032004000200091
:1010ac0012003700ee4090002e009000a4ff0700c5
:1010bc000000e00002003200700020000b0037003e
:1010cc004bff07000000e00002003200800020000f
:1010dc0006003700e0fe07000000e00002003200ce
:1010ec0050002000010037000000eb000080fa00e7
:1010fc00000006000600fa002047980031479800cf
:10110c0042479800ebfe07000000e00002003200ae
:10111c00100020002f003700a1fe07000000e000a7
:10112c0002003200200020002a0037002e409000e0
:10113c00f7fe07000000e000020032003000200043
:10114c00240037000e0078000bff07000000e000c1
:10115c0002003200400020001e0037003e4090008c
:10116c00ebfe07000000e00002003200300020001f
:10117c00180037000e007800fffe07000000e000aa
:10118c000200320040002000120037004e40900058
:10119c00dffe07000000e0000200320030002000fb
:1011ac000c0037000e007800f3fe07000000e00092
:1011bc00020032004000200006003700a6fe0700a7
:1011cc000000e00002003200500020000100370057
:1011dc000000eb000080fa00000006000000fa009e
:1011ec004141800030418000008040000000d1006f
:1011fc00d040880010002000604088000621ef00dd
:10120c00d04080000000e900600888008108800060
:10121c00f0fc2f00008060000040a00080088800d7
:10122c001021a90010c1a90094e0a80084e0a90035
:10123c00d202a900d222a900d242a900d262a900ee
:10124c00d602a800d622a900d642a900d662a900cf
:10125c0011e1a8000080fa00000006000000fa006e
:10126c001821ef00f0702200e0088800910880003f
:10127c00f0fc2f0000806000900888001221a9006b
:10128c0012c1a9009500a8008500a90013e1a800cf
:10129c000080fa00000006000000fa001821ef00a0
:1012ac00f0c32900e008880001098000f0fc2f0041
:1012bc0000806000000988002021a90020c1a9003d
:1012cc009780a8008780a90021e1a8000080fa007f
:1012dc00000006000000fa002621ef00701a26001c
:1012ec005009880071098000f0fc2f00008060001c
:1012fc000040a000700988002e21a9002ec1a90071
:10130c009a00a8008a00a9002fe1a8000080fa002a
:10131c00000006000400fa00000f78001107980086
:10132c003421ef001e00e900c00988001e00900067
:10133c0000407800634060000080fb0063006000a8
:10134c004400dd00e2098000f1fc2f008100610007
:10135c0001007000e00988003c21a9003cc1a900f3
:10136c009a80a8008a80a9003de1a8000080fa00bc
:10137c00000006000600fa00200798000000eb00b1
:10138c00000f7800ae009000c0cc2000808f500081
:10139c000800340010002000000f78002e00900090
:1013ac000000e00001003d00670040004380de00cb
:1013bc00200798002e0090007400b90000007800ff
:1013cc00100798009e0078001e009000d1ff0700c7
:1013dc0000000000004080000000e000fdff320033
:1013ec000028ef000080fa00000006000600fa005a
:1013fc00200798002e009000e20f500008003c00df
:10140c000000eb0010079800ae00900000e22400f2
:10141c000088b90000007800000f78001200370037
:10142c002e009000fa0f500008003c001000200025
:10143c0010079800ae009000409c20000088b90076
:10144c0000007800000f7800070037002000200013
:10145c0010079800ae009000901320000088b9008f
:10146c0000007800000f78009e0090001e007800ad
:10147c00a8ff070000000000004080000000e00012
:10148c00fdff32000028ef000080fa00000006008b
:10149c000800fa00000f7800110798002207980046
:1014ac00330798001e0078008000eb0001087800dc
:1014bc001e0090008000eb00010878002e009000c8
:1014cc008000eb00010878003e0090008000eb00eb
:1014dc00010878000080fa00000006000800fa00fd
:1014ec00000f780011079800220798003307980026
:1014fc001e0078008000eb00010878001e009000b0
:10150c008000eb00010878002e0090008000eb00ba
:10151c00010878003e0090008000eb000108780084
:10152c00c422a900c462a900c4a2a9000080fa00c8
:10153c00000006000a00fa00100798002107980026
:10154c00320798004307980010408000e10f5000cc
:10155c008f003a00710980000000280000806000b4
:10156c000000e0008a0032000228ef001e0090000c
:10157c0010007800ea0040001e009000010878007e
:10158c001e0090009000780040062000808f5000d4
:10159c007f003a00201680006200600000f0a70077
:1015ac000000ea000000e9004f00de000040780077
:1015bc000080fb00610060000000400021168000ec
:1015cc000110a10001007000201688001e00900080
:1015dc008000eb00010878002e00900010007800cd
:1015ec008000e8002e009000010878002e0090008a
:1015fc0010007800ea0f50005d003a0020168000c1
:10160c006800600000f0a7000000ea000000e9009c
:10161c004f00de00004078000080fb00610060009d
:10162c004300dd00211680000130a1000100700094
:10163c00201688002e0090008000eb000108780036
:10164c003e009000100078008000e8003e00900002
:10165c00010878002e0090001000780080007800bf
:10166c000e0078004c0007009e409000c0842000c3
:10167c00014878003e00900090007800c0032000e4
:10168c00808f50002e003a002116800000022000ae
:10169c000080600000f0a7000000ea000000e900f4
:1016ac004f00de00004078000080fb00610060000d
:1016bc004500dd00211680000150a10001007000e2
:1016cc00201688003e0090008000eb000108780096
:1016dc004e009000100078008000e8004e00900052
:1016ec00010878003e00900010007800800078001f
:1016fc000e007800280007009e407800908420009f
:10170c00014878009e409000a08420000148780099
:10171c004e00900010007800800078000e007800d9
:10172c001d0007009e40780060842000014878006e
:10173c009e4090007084200001487800140037000f
:10174c003e00900010007800800078000e007800b9
:10175c00110007009e40780090842000014878001a
:10176c009e409000a08420000148780008003700bb
:10177c002e00900010007800800078000e00780099
:10178c00050007009e409000c084200001487800ae
:10179c000080fa00000006000600fa00100798000e
:1017ac0021079800ae00900030062000808f50007a
:1017bc0001003600ffff3700ae009000d0cc2c00ab
:1017cc000008b8004308de00004f78001e80fb00c4
:1017dc00c1992000614f78001e0090001e487800cf
:1017ec001e0090000000e800100798002e019000e9
:1017fc00d0cc2c000010b8004308de006a00b90001
:10180c000000780000005100004f78001e80fb00a3
:10181c00c1992000614f78001e0090001e4878008e
:10182c000080fa00000006000a00fa002007980069
:10183c0031079800420798000000eb00000f780079
:10184c00180037003e019000d0cc2c000010b800de
:10185c004308de006a00b900000078000000510067
:10186c00204798004e0090001e0050000000e90038
:10187c00ae00900000804000ae4090008180fb00e4
:10188c00c2992000e2c0780001487800be009000a8
:10189c00d0cc2c000008b8004308de0030079800bc
:1018ac001e0fe8004e0090009e007800808f5000c4
:1018bc00e4ff39000080fa00000006000e00fa0078
:1018cc004007980051079800620798000000eb0051
:1018dc00000f7800ce009000110798001800370018
:1018ec001e0090006f006000300798003e009000d2
:1018fc00e90f500008003e005e0090001e00400002
:10190c00be009000814078000143b000014878008f
:10191c001e0fe800070037005e0090001e0040001c
:10192c00be009000814078007143b00001487800ff
:10193c001e0fe8001e0090004400de001007980007
:10194c001e0090000000e000e5ff3a009e007800c9
:10195c0021079800080037002e009000de00900050
:10196c000080400001c3b300014878002e009000b5
:10197c000000e80020079800ae0090006e00900078
:10198c00808f5000f4ff39000080fa000000060040
:10199c000400fa00100798000000eb00000f78001c
:1019ac001e009000104078000080fb00000f7800b3
:1019bc001e0078004800dd00000f78001e0090002b
:1019cc000000e800104078000080fb001e0f700043
:1019dc001e0078000080fa00000006000800fa00e3
:1019ec00300798000000eb00100798000000eb0097
:1019fc00200798000000eb00000f7800090037006a
:101a0c001e00780000004000be00900000804000e6
:101a1c00100078009e009000008040001007980095
:101a2c001e0fe8001e007800e70f5000f4ff340092
:101a3c001e0090004300de00200798002e0090004e
:081a4c000080fa000000060012
:020000040000fa
:101a54000008000010000000000000001008000052
:101a64000a000000000000009c09000010000000b3
:101a7400020000003031320033343500363738008c
:101a84003900000000000000000000002c080000e5
:101a940020010000020000002d20440053452000d6
:101aa40032303200312d320032202d002d0d0a004b
:101ab400546965006d706f003a202d002d3a2d0099
:101ac4002d3a2d00200d0a002d2049004e464f00ce
:101ad400205049004332340048202d002d0d0a00c7
:101ae400506f7400656e3a002020200020202000f2
:101af4002d2d2d002d0d0a0054656d0070653a00e2
:101b04002020200020202000202d2d002d0d0a0053
:101b14004a6f790073746900636b2000583a20009f
:101b24002d2d2d002d0d0a004a6f79007374690064
:101b3400636b2000593a20002d2d2d002d0d0a0035
:101b44004a6f790073746900636b20005a3a20006d
:101b54002d2d2d002d0d0a004d696e0069204a00bf
:101b64006f792000583a20002d2d2d002d0d0a00ec
:101b74004d696e0069204a006f792000593a2000af
:101b84002d2d2d002d0d0a002d2d2000494e46002f
:101b94004f20420052415a004f202d002d0d0a00c3
:101ba40053657200766f2000313a20002020200017
:101bb4002d2d2d002d0d0a0053657200766f200027
:101bc400323a2000202020002d2d2d002d0d0a005a
:101bd40053657200766f2000333a200020202000e5
:101be4002d2d2d002d0d0a0053657200766f2000f7
:101bf400343a2000202020002d2d2d002d0d0a0028
:101c040053657200766f2000353a200020202000b2
:101c14002d2d2d002d0d0a004c0900005000000050
:101c24000000000022080000040000000000000082
:101c34002a0800000200000000000000260800003e
:101c44000400000002000000dc057c001500000018
:101c54001a08000008000000000000000000000056
:020000040000fa
:101c64000200fa00004f7800d6a2a900cbe2a90036
:101c7400e116800000f02f0000806000e01688006c
:101c84009e00fb00e016800001007000e016880052
:101c9400d682a80000000000000000000000000040
:101ca4000000000000000000d682a900d6a2a8000f
:101cb4000080fa00000006000200fa00004f7800dd
:101cc400d6a2a900cbe2a800e116800000f02f0004
:101cd40000806000e01688009e00fb00e016800093
:101ce40001007000e0168800d682a8000000000001
:101cf40000000000000000000000000000000000e0
:101d0400d682a900cbe2a900d6a2a8000080fa00de
:101d1400000006000000fa00f0002000b5fd0700f6
:101d2400e116800000f02f0000806000e0168800bb
:101d3400d6a2a900cbe2a900d682a900c1168000d0
:101d440000f02f0000806000c0168800d2a2a90015
:101d5400c7e2a900d282a90080c3b300c0ff070074
:101d640050002000a3fd070080c3b300bcff0700a0
:101d74004006200081fd070080c3b300b8ff0700c0
:101d8400800220007dfd070080c3b300b4ff07007c
:101d94008002200079fd0700c0c0b300b0ff070037
:101da4008002200075fd070060c0b300acff07008f
:101db4008002200071fd07000080fa000000060088
:101dc4001400fa0053000700a4000700cf00070026
:101dd40004fd070041fd070022fd0700f001470054
:101de4006e014700ec0047006a004700aafd0700a7
:101df40071000700720047008000eb0068fe0700d6
:101e0400ae5090006084200001487800ae509000ed
:101e14007084200001487800ae5090009084200027
:101e240001487800ae509000a0842000014878005a
:101e3400ae509000c0842000014878003422ef00a6
:101e4400820007000100370000000000f001470095
:101e54006e014700ec0047006a004700b7fd070029
:101e640020418000e10f5000f7ff3a00c0942000a9
:101e7400dcfe0700000f7800c0952000d9fe0700a3
:101e840010079800c0962000d6fe0700200798008f
:101e9400c0972000d3fe070030079800c0982000a8
:101ea400d0fe070040079800c08220002004b00044
:101eb400420020009e0078005dfe0700c0822000e2
:101ec4005005b000320020009e00900058fe07002c
:101ed400c08220006006b00042002000ae009000e6
:101ee40053fe0700c08220008007b000420020009b
:101ef400be0090004efe0700c0822000a008b00083
:101f040042002000ce00900049fe07002428ef0084
:101f1400ceff37000000fa0020012000303a88008c
:101f2400213a8000f0f32f0000806000203a8800fe
:101f3400213a800000fe2f0000806000203a8800d3
:101f440040a7a9003200200080072000a10920003a
:101f540033742000804978008149780082497800f0
:101f6400120020006004200071052000237420006a
:101f74008049780081497800824978000000000097
:101f8400113a8000000027008080600000002300d8
:101f9400808f5000faff3a0000000000113a8000e0
:101fa40000022000008060000000e000fbff32001f
:101fb4000080fa00000006000000fa002023ef0071
:101fc40001198000000e2000010070000019880033
:101fd4002223ef002423ef002119800000f02100c8
:101fe400010070002019880030c0b30024e3b7005a
:101ff4003223ef002623ef002823ef00411980004d
:1020040000fe2f0000806000401988002e23ef009e
:102014003023ef000080eb00501988000080eb00b3
:10202400601988002ca3a9002c83a9002c03a90003
:102034002c23a9002c43a90085a0a90095a0a800e1
:1020440021e3a8000080fa00000006000000fa0066
:102054002023a8000080fa00000006000000fa0017
:10206400c00a2000c01188003022ef003062a800ae
:102074008111800090ff2f00008060000020a000ec
:10208400801188003222ef0087c0a90087e0a900f0
:1020940097c0a80097e0a8009c40a9003222a9009c
:1020a40031e2a8003342a80030022000b3fc07004c
:1020b4000080fa00000006000000fa0000f02f0083
:1020c40000168800000000000000000021168000b7
:1020d40000f02f0000806000201688000080fa00c5
:1020e400000006000000fa000080eb005019880090
:1020f400d2c2a800d2e2a800d3a2a800c0e2a800dd
:10210400c662a8000080fa00000006000000fa0081
:1021140020cb2000d040880020cb2000e040880065
:1021240020cb2000f040880020cb20000041880014
:102134000080fa00000006000000fa0061e0a80038
:102144006200a80062e0a80060a0a8009660a80051
:0c2154008660a9000080fa000000060070
:020000040000fa
:0200000401f009
:04000c00fbff0000f6
:020000040000fa
:0200000401f009
:040010007dff000070
:020000040000fa
:0200000401f009
:040014007fff00006a
:00000001FF
