:020000040000fa
:080000000002040000000000f2
:020000040000fa
:040008005409000097
:020000040000fa
:04000c005409000093
:020000040000fa
:04001000540900008f
:020000040000fa
:04001400540900008b
:020000040000fa
:040018005409000087
:020000040000fa
:04001c005409000083
:020000040000fa
:04002000540900007f
:020000040000fa
:04002400540900007b
:020000040000fa
:040028005409000077
:020000040000fa
:04002c005409000073
:020000040000fa
:04003000540900006f
:020000040000fa
:04003400c8020000fe
:020000040000fa
:040038005409000067
:020000040000fa
:04003c005409000063
:020000040000fa
:04004000540900005f
:020000040000fa
:040044000c030000a9
:020000040000fa
:04004800c0030000f1
:020000040000fa
:04004c005409000053
:020000040000fa
:04005000540900004f
:020000040000fa
:04005400540900004b
:020000040000fa
:040058005409000047
:020000040000fa
:04005c00e8070000b1
:020000040000fa
:04006000540900003f
:020000040000fa
:04006400540900003b
:020000040000fa
:040068005409000037
:020000040000fa
:04006c005409000033
:020000040000fa
:04007000540900002f
:020000040000fa
:04007400e40800009c
:020000040000fa
:040078005409000027
:020000040000fa
:04007c005409000023
:020000040000fa
:04008000540900001f
:020000040000fa
:04008400540900001b
:020000040000fa
:040088005409000017
:020000040000fa
:04008c005409000013
:020000040000fa
:04009000540900000f
:020000040000fa
:04009400de03000087
:020000040000fa
:04009800e804000078
:020000040000fa
:04009c005409000003
:020000040000fa
:0400a000b4050000a3
:020000040000fa
:0400a40072070000df
:020000040000fa
:0400a80054090000f7
:020000040000fa
:0400ac0054090000f3
:020000040000fa
:0400b00054090000ef
:020000040000fa
:0400b40054090000eb
:020000040000fa
:0400b80054090000e7
:020000040000fa
:0400bc0054090000e3
:020000040000fa
:0400c00054090000df
:020000040000fa
:0400c40054090000db
:020000040000fa
:0400c80054090000d7
:020000040000fa
:0400cc0054090000d3
:020000040000fa
:0400d00054090000cf
:020000040000fa
:0400d40054090000cb
:020000040000fa
:0400d80054090000c7
:020000040000fa
:0400dc0054090000c3
:020000040000fa
:0400e00054090000bf
:020000040000fa
:0400e4008005000093
:020000040000fa
:0400e800920500007d
:020000040000fa
:0400ec0054090000b3
:020000040000fa
:0400f00054090000af
:020000040000fa
:0400f40054090000ab
:020000040000fa
:0400f800a20500005d
:020000040000fa
:0400fc0054090000a3
:020000040000fa
:04010000540900009e
:020000040000fa
:04010400540900009a
:020000040000fa
:040108005409000096
:020000040000fa
:04010c005409000092
:020000040000fa
:04011000540900008e
:020000040000fa
:04011400540900008a
:020000040000fa
:040118005409000086
:020000040000fa
:04011c005409000082
:020000040000fa
:04012000540900007e
:020000040000fa
:04012400540900007a
:020000040000fa
:040128005409000076
:020000040000fa
:04012c005409000072
:020000040000fa
:04013000540900006e
:020000040000fa
:04013400540900006a
:020000040000fa
:040138005409000066
:020000040000fa
:04013c005409000062
:020000040000fa
:04014000540900005e
:020000040000fa
:04014400540900005a
:020000040000fa
:040208005409000095
:020000040000fa
:04020c005409000091
:020000040000fa
:04021000540900008d
:020000040000fa
:040214005409000089
:020000040000fa
:040218005409000085
:020000040000fa
:04021c005409000081
:020000040000fa
:04022000540900007d
:020000040000fa
:040224005409000079
:020000040000fa
:040228005409000075
:020000040000fa
:04022c005409000071
:020000040000fa
:04023000540900006d
:020000040000fa
:040234005409000069
:020000040000fa
:040238005409000065
:020000040000fa
:04023c005409000061
:020000040000fa
:04024000540900005d
:020000040000fa
:040244005409000059
:020000040000fa
:040248005409000055
:020000040000fa
:04024c005409000051
:020000040000fa
:04025000540900004d
:020000040000fa
:040254005409000049
:020000040000fa
:040258005409000045
:020000040000fa
:04025c005409000041
:020000040000fa
:04026000540900003d
:020000040000fa
:040264005409000039
:020000040000fa
:040268005409000035
:020000040000fa
:04026c005409000031
:020000040000fa
:04027000540900002d
:020000040000fa
:040274005409000029
:020000040000fa
:040278005409000025
:020000040000fa
:04027c005409000021
:020000040000fa
:04028000540900001d
:020000040000fa
:040284005409000019
:020000040000fa
:040288005409000015
:020000040000fa
:04028c005409000011
:020000040000fa
:04029000540900000d
:020000040000fa
:040294005409000009
:020000040000fa
:040298005409000005
:020000040000fa
:04029c005409000001
:020000040000fa
:0402a00054090000fd
:020000040000fa
:0402a40054090000f9
:020000040000fa
:0402a80054090000f5
:020000040000fa
:0402ac0054090000f1
:020000040000fa
:0402b00054090000ed
:020000040000fa
:0402b40054090000e9
:020000040000fa
:0402b80054090000e5
:020000040000fa
:0402bc0054090000e1
:020000040000fa
:0402c00054090000dd
:020000040000fa
:0402c40054090000d9
:020000040000fa
:0402c80054090000d5
:020000040000fa
:0402cc0054090000d1
:020000040000fa
:0402d00054090000cd
:020000040000fa
:0402d40054090000c9
:020000040000fa
:0402d80054090000c5
:020000040000fa
:0402dc0054090000c1
:020000040000fa
:0402e00054090000bd
:020000040000fa
:0402e40054090000b9
:020000040000fa
:0402e80054090000b5
:020000040000fa
:0402ec0054090000b1
:020000040000fa
:0402f00054090000ad
:020000040000fa
:0402f40054090000a9
:020000040000fa
:0402f80054090000a5
:020000040000fa
:0402fc0054090000a1
:020000040000fa
:04030000540900009c
:020000040000fa
:040304005409000098
:020000040000fa
:040308005409000094
:020000040000fa
:04030c005409000090
:020000040000fa
:04031000540900008c
:020000040000fa
:040314005409000088
:020000040000fa
:040318005409000084
:020000040000fa
:04031c005409000080
:020000040000fa
:04032000540900007c
:020000040000fa
:040324005409000078
:020000040000fa
:040328005409000074
:020000040000fa
:04032c005409000070
:020000040000fa
:04033000540900006c
:020000040000fa
:040334005409000068
:020000040000fa
:040338005409000064
:020000040000fa
:04033c005409000060
:020000040000fa
:04034000540900005c
:020000040000fa
:040344005409000058
:020000040000fa
:100400006fa120000e7f24000e0188000000000074
:10041000000020000000e000020032000001200087
:100420002002880014000700a10307000000e0007c
:1004300003003a0040502100010020000200370074
:100440000000200001002000810f70000100320038
:1004500014000700000020000000e000020032004d
:100460000000020000000000521102000000000025
:100470000040da000000fe004440a90040002000d7
:100480000000e0000300320000002000a00188000e
:100490004440a800000006008a1f78008b1f7800e7
:1004a0000000060091018800800478000000eb0045
:1004b0001a003700e284440032a0b4009905ba0063
:1004c000e284440032a0b4009906ba00e2844400f9
:1004d00032a0b4000006eb00476fde00fd07b2005b
:1004e000636ce10003003a00ebff07000000eb0043
:1004f0000a003700606ce10004003a00005deb0088
:100500008b05e900fdff3e00040037006168e10053
:10051000010032000086eb000b00070019c7ba008b
:100520001905ba000e04e00003003a000a00e000da
:10053000e0ff3a0000000600fe07b2009e018800be
:100540008a047800f5ff3700395dba008b05e900b1
:100550000c003200295dba008b05e900080032006a
:100560000c00e00003003a00e284440032a0b40032
:10057000f5ff370019ddba008b05e900faff3a00f4
:100580008904e800e184440032a0b40000000600c1
:10059000809fbe000000fa0040428000e10f500042
:1005a00019003a00504280000000e00016003a00b6
:1005b0002142800060428000808f5000040036009d
:1005c000204280006a005000204288000e00370060
:1005d0002142800060428000808f50000400310082
:1005e000204280006a004000204288000600370058
:1005f0002142800060428000808f500002003a005b
:1006000060428000204288008460a9000080fa00d7
:100610004f00be0000400600809fbe000000fa00b0
:1006200050408000e20f500023003200e20f5000e3
:1006300005003e000000e0000a003200e10f50001b
:10064000110032004a003700e40f5000320032003f
:10065000e40f500024003900e50f50003a0032004a
:1006600043003700d602a800f041800060088800ef
:100670006008800040408800504080000000e80092
:10068000504088003a003700d602a900d622a800c0
:1006900000428000600888004140800060088000bf
:1006a0000080400040408800504080000000e8008a
:1006b000504088002e003700d622a900d642a8005c
:1006c000104280006008880041408000600880007f
:1006d0000080400040408800504080000000e8005a
:1006e0005040880022003700d642a900d662a800f8
:1006f000204280006008880041408000600880003f
:100700000080400040408800504080000000e80029
:100710005040880016003700d662a900cb62a800be
:1007200030428000600888004140800060088000fe
:100730000080400040408800504080000000e800f9
:10074000504088000a003700cb62a9006008800092
:100750004040880040408000f1342c000080500070
:10076000600888000828ef000a28ef000000000059
:1007700084e0a9000080fa004f00be00004006009f
:100780003600f800809fbe00829fbe00849fbe009e
:10079000869fbe000000fa00b80907008500a90086
:1007a0000080fa004f03be004f02be004f01be00a2
:1007b0004f00be003600f90000400600809fbe00da
:1007c0000000fa0070408000e20f50003800320054
:1007d000e20f500005003e000000e0000a00320079
:1007e000e10f50001d00320075003700e40f50008b
:1007f00059003200e40f500042003900e50f50006c
:100800006a0032006e00370050418000ea0040006c
:10081000f0418000808f500004003100f0418000e2
:100820006a005000f04188006500370050418000a8
:10083000ea004000f0418000808f50000400360044
:10084000f04180006a004000f04188005c00370001
:10085000100020007040880059003700604180007f
:10086000ea00400000428000808f50000400310008
:10087000f04180006a005000f041880050003700cd
:1008800060418000ea00400000428000808f5000fc
:1008900004003600004280006a00400000428800e8
:1008a00047003700200020007040880044003700d7
:1008b00070418000ea00400010428000808f5000ac
:1008c00004003100104280006a005000104288008d
:1008d0003b00370070418000ea0040001042800079
:1008e000808f500004003600104280006a004000f3
:1008f000104288003200370030002000704088002d
:100900002f00370080418000ea0040002042800034
:10091000808f500004003100204280006a005000a7
:10092000204288002600370080418000ea00400015
:1009300020428000808f500004003600204280005a
:100940006a004000204288001d003700400020005f
:10095000704088001a00370090418000ea00400093
:1009600030428000808f500004003100304280000f
:100970006a0050003042880011003700904180002a
:10098000ea00400030428000808f500004003600b2
:10099000304280006a004000304288000800370082
:1009a0005000200070408800050037000e28ef003e
:1009b00010002000804088001fe1a9000000000016
:1009c0008760a9000080fa004f00be0000400600ca
:1009d0003600f800809fbe00829fbe00849fbe004c
:1009e000869fbe000000fa0020408000e10f50000a
:1009f0000d003200e10f500005003900e20f5000f9
:100a00001c003200e30f5000200032003400370099
:100a100000c8b3009a080700204080000000e800ea
:100a2000204088002e003700604080003240800067
:100a30007200b9000000780002004000218520000b
:100a400061407800a4080700304080000000e80002
:100a50003040880030408000f00f50001d003a0008
:100a60000628ef00204080000000e80020408800b9
:100a70001b00370000ccb300810807002040800035
:100a80000000e8002040880015003700604080002a
:100a90000000e800324080007200b90000007800d9
:100aa0000200400021852000614078008a0807008c
:100ab000304080000000e800304088003040800076
:100ac000f00f500005003a000628ef000428ef0060
:100ad00003003700000000000100370000000000a4
:100ae0008780a9000080fa004f03be004f02be00bd
:100af0004f01be004f00be003600f9000040060066
:100b0000801f78000000fa0010002000904088004c
:100b10002de1a90089e0a9000080fa004f007800cb
:100b200000400600801f78000000fa00100020003e
:100b3000104088008a00a9000080fa004f00780069
:100b400000400600801f78000000fa00100020001e
:100b5000004088003de1a9008a80a9000080fa00d9
:100b60004f00780000400600809fbe00829fbe00bc
:100b70000000fa00b0118000004078004ee8b70095
:100b80004ec8bf000080fb00f1062000810f50001e
:100b90000800320001072000810f50000c003200d5
:100ba00091062000810f500013003a002fe1a900a8
:100bb00011003700710980000000280000806000eb
:100bc0000000e000090032002fe1a9000a00370010
:100bd0007109800000002800008060000000e00033
:100be00004003a002fe1a8000300370000000000d5
:100bf0000100370000000000404280000000e000db
:100c0000b3003a00504280000000e000b0003a001b
:100c10004ec8bf000080fb006101b900f0f92f0051
:100c2000f1ff2f0002004000838048008201200075
:100c300003002000820f5000838f58009f003e0069
:100c400000600100180037009e0037009d0037004b
:100c5000220037009b003700570037007d00370027
:100c60006f00370097003700870037009500370086
:100c7000940037009300370092003700910037004e
:100c8000900037008f0037003b0037002d00370001
:100c90008c0037008b0037008a0037001c003700bb
:100ca0008800370051003700f04180002103200008
:100cb0008080400040418000808f5000040031005f
:100cc000f04180002003b000f04188008000370030
:100cd00040418000f04188007d003700f0418000f5
:100ce000e1fc2f008080400030418000808f500068
:100cf00004003600f04180002003b100f04188007c
:100d00007300370030418000f041880070003700e8
:100d1000004280002103200080804000404180008c
:100d2000808f500004003100004280002003b0009a
:100d30000042880066003700404180000042880081
:100d40006300370000428000e1fc2f0080804000fb
:100d500030418000808f5000040036000042800047
:100d60002003b10000428800590037003041800064
:100d7000004288005600370080428000e50f500096
:100d80005200360010428000210320008080400085
:100d900040418000808f50000400310010428000ec
:100da0002003b00010428800490037004041800015
:100db000104288004600370010428000e1fc2f00fe
:100dc0008080400030418000808f50000400360059
:100dd000104280002003b100104288003c00370020
:100de00030418000104288003900370020428000e6
:100df000210320008080400040418000808f50000f
:100e000004003100204280002003b000204288000e
:100e10002f00370040418000204288002c0037001e
:100e200020428000e1fc2f008080400030418000a3
:100e3000808f500004003600204280002003b10063
:100e40002042880022003700304180002042880084
:100e50001f003700304280002103200080804000c6
:100e600070832100808f500004003e0030428000db
:100e70002003b00030428800150037008083210035
:100e8000304288001200370030428000e1fc2f0021
:100e900080804000c0c12000808f500004003600d8
:100ea000304280002003b100304288000800370043
:100eb000c0c120003042880005003700000000005b
:100ec00003003700000000000100370000000000b0
:100ed00087c0a9000080fa004f01be004f00be008d
:100ee00000400600809fbe00821f78000000fa00cc
:100ef000a04180000000e00010003a00b0418000f6
:100f000001b02800614078000000fb00a0118800bb
:100f1000b04180000000e800b0418800b04180008e
:100f2000e30f500025003a003628ef00a041800072
:100f30000000e800a041880020003700c041800088
:100f4000d24180007200b900000078000200400029
:100f500021852000614078000080fb00a0118800fe
:100f6000d04180000000e800d0418800c0418000ee
:100f7000f10f500008003200d0418000f20f500005
:100f800005003a00c04180000000e800c041880030
:100f90003a28ef0009003700c0418000f10f5000ef
:100fa00006003a00d0418000f20f500003003a00e2
:100fb0003428ef003a28ef003828ef0087e0a90036
:100fc0000080fa004f0178004f00be00004006008c
:100fd000809fbe00821f78000000fa00b0408000b1
:100fe0000000e00073003a004019800000407800e3
:100ff0007f4060000080fb00e40f500034003200ae
:10100000e40f500007003c00e10f500018003200d0
:10101000e20f5000220032000000e0000800320021
:1010200064003700e80f500041003200e90f500023
:101030004b003200e50f5000310032005d003700f8
:10104000a04080000118800000014000609b20004b
:1010500000004100010878004119800000fe2f00c7
:10106000008060000000a000401988005100370097
:10107000a04080000118800000014000609c20001a
:1010800000004100010878004119800000fe2f0097
:10109000008060000010a000401988004500370063
:1010a000a04080000118800000014000609d2000e9
:1010b00000004100010878004119800000fe2f0067
:1010c000008060000020a00040198800390037002f
:1010d000a04080000118800000014000609a2000bc
:1010e00000004100010878004119800000fe2f0037
:1010f000008060005000b300401988002d003700c8
:10110000a04080000118800000014000609920008c
:1011100000004100010878004119800000fe2f0006
:10112000008060000030a0004019880021003700d6
:10113000a04080000118800000014000609e200057
:1011400000004100010878004119800000fe2f00d6
:10115000008060009000b30040198800150037003f
:10116000a04080000118800000014000609f200026
:101170000000410001087800a0408000e70f500007
:1011800004003200a04080000000e800a040880079
:10119000030037001428ef0010002000b040880042
:1011a0004119800000fe2f00008060004019880077
:1011b0000000000085a0a9000080fa004f0178001f
:1011c0004f00be00004006003600f800809fbe00c1
:1011d000829fbe00849fbe00869fbe000000fa0072
:1011e000a116800000042000008060000000e000e4
:1011f00006003a0060408000f00f5000030032000b
:10120000604080000080e80060408800a1168000f7
:1012100000082000008060000000e00006003a00a6
:10122000604080000000e000030032006040800069
:101230000080e9006040880011168000000820004e
:10124000008060000000e00006003a00404280009c
:1012500000f0a7000000ea000000e9004f00de00f7
:101260004042880040168000680060000000e000f6
:1012700003003a00ab020700100020005042880033
:1012800000000000000000008660a9000080fa0055
:101290004f03be004f02be004f01be004f00be0014
:1012a0003600f900004006000040da000000fe00b1
:1012b000000005000001be001b0007000470a7002d
:1012c00003f0a10003f8a30013003a006509b10080
:1012d00010003200090035006928e10002003500e5
:1012e0000100280000000500000040008180480047
:1012f0008502e900fcff3a0000000600f88f42007a
:10130000050035008100d1000080d3008502e8008f
:10131000fcff3a00000006008000eb000000050022
:101320006011b80049003700c70ade00f107b200bb
:10133000f50fb20008003200e1cf42000200320097
:101340000170a00024000500810f70000100320030
:101350000408050044000500810f700002003a00f7
:10136000140005008502e9000000400081c048002b
:10137000fcff3b000170a00024000500889fbe0018
:101380008a9fbe008c1f7800850007008c00330008
:1013900003866c006450e100240032006420e10008
:1013a000270032006150e100220032006120e1009c
:1013b000210032008b854200eb07b1000134b800f8
:1013c000003ab8000804420089844a00013ab80093
:1013d0000030b8008880400009014a000400330052
:1013e0000000400081804800020149008b05e900af
:1013f000c909dd00830170000100320013002000e4
:10140000c814de004814dd004709de001200b200f7
:10141000c808de00088470003b00070001f0a1004e
:101420000cf0a70001f0a0006e0037006120e10081
:10143000700032000801be000200be00f7ff370056
:101440006150e100fcff3a006a003700889fbe004f
:101450008a9fbe0000827000040271000482710045
:10146000260032000004be000200be006011b80079
:101470006b092000950220000182cf000a0039008c
:101480000541b1000082cf00070039000541b100dd
:101490000982cf00040039000541b1000882cf0065
:1014a000010039000541b10005425200120032002e
:1014b0000a003b0082817100610164008100d1005b
:1014c0000080d3008984d3000884d3008b05e80012
:1014d0000442e800f7ff3a00070037000804440020
:1014e00089844c0000004800818048008b05e90099
:1014f0000442e900f9ff3a00030007004f05be006f
:101500004f04be00000006008100200061805500ed
:101510000b003d000b00200061fe2f000100e100e8
:101520001d00340082817100610164008904d100d2
:101530000884d3000000e800faff3a0071002000a0
:1015400061006400030070000200600009003200c6
:1015500061044400e0844c000988a50005003200c5
:101560008b05e8006808e10002003a008904d10018
:101570000884d300f20f20000258e10005003d006e
:10158000c75ddd00f907b2008980750008007800aa
:10159000000006000bf827008b0078000000050013
:1015a0000004be0060ff07000003be000405be008b
:1015b0000200be005cff0700844f750000000600bb
:1015c0000200be006450e100050036006420e10026
:1015d000020036000968a30001003a000800be00be
:1015e0000160a0004f0678004f05be004f04be000a
:1015f00000000600f0ff2f00f1ff2700f9ff370081
:020000040000fa
:081600001b5b00004800000024
:020000040000fa
:101608000000fa00500c2000201088000020210063
:101618003010880007e2a8000080fa0000000600e9
:101628000200fa000602a8000000eb00000f780094
:10163800010037001e0fe8003010800061006000d4
:101648000000e00004003200703e20009e00780098
:10165800808f5000f7ff3600703e20009e00780013
:10166800808f500002003600100020000100370073
:101678000000eb000080fa00000006000200fa00fb
:101688000622a8000000eb00000f780001003700d8
:101698001e0fe80030108000620060000000e000cb
:1016a80004003200703e20009e007800808f5000b9
:1016b800f7ff3600703e20009e007800808f5000b3
:1016c8000200360010002000010037000000eb0087
:1016d8000080fa00000006000200fa000642a80096
:1016e8000000eb00000f7800010037001e0fe80033
:1016f80030108000640060000000e0000400320048
:10170800703e20009e007800808f5000f7ff360062
:10171800703e20009e007800808f50000200360046
:1017280010002000010037000000eb000080fa00e4
:10173800000006000200fa000000eb00000f78002d
:10174800010037001e0fe80041108000000024004f
:10175800008060000000e00004003200703e2000bd
:101768009e007800808f5000f6ff3600703e200003
:101778009e007800808f5000020036001000200084
:10178800010037000000eb000080fa0000000600ae
:101798000400fa00204798002e4090000080fb00cb
:1017a800101088000000eb00000f780001003700df
:1017b8001e0fe80040108000610060000000e0009b
:1017c80004003200703e20009e007800808f500098
:1017d800f7ff3600703e20009e007800808f500092
:1017e8000200360010002000010037000000eb0066
:1017f8000080fa00000006000400fa0010079800b4
:101808000000eb00000f7800010037001e0fe80011
:101818004110800000002400008060000000e0000b
:1018280004003200703e20009e007800808f500037
:10183800f6ff3600703e20009e007800808f500032
:10184800020036001000200007003700401080001a
:101858004f00de00004078008080fb001e009000f2
:10186800010878000000eb000080fa000000060084
:101878000200fa0006a2a8000682a8000000eb00f9
:10188800000f7800010037001e0fe80030108000bc
:10189800700060000000e00004003200703e20008c
:1018a8009e007800808f5000f7ff3600703e2000c1
:1018b8009e007800808f5000020036001000200043
:1018c800010037000000eb000080fa00000006006d
:1018d8000200fa0006a2a9000682a8000000eb0098
:1018e800000f7800010037001e0fe800301080005c
:1018f800700060000000e00004003200703e20002c
:101908009e007800808f5000f7ff3600703e200060
:101918009e007800808f50000200360010002000e2
:10192800010037000000eb000080fa00000006000c
:101938000400fa00100798000662a8000000eb00f7
:10194800000f7800010037001e0fe80040108000eb
:101958006200600000f0a7000000ea000000e90053
:101968004f00de008040780010c0b300723e2000b7
:101978009e017800828f5100010034000040eb0086
:1019880000c060000004e000efff3a00703e200055
:101998009e007800808f5000020034001000200064
:1019a8000500370000108000804078001e0090007d
:1019b800014878000000eb000080fa0000000600f3
:1019c8000400fa00000f7800214798000f00370044
:1019d8001e007800d6ff07000000e0000200320079
:1019e80010002000140037001e0fe8002e40900061
:1019f8000004e00005003200b5ff07000000e00029
:101a080002003200200020000b0037002e4090001a
:101a18000080fb000000ea004f00de000040780074
:101a2800ae4090008140e900214798000004e000a2
:101a3800e7ff3a000000eb000080fa000000060013
:101a48000800fa00204798003147980022079800bc
:101a58006347980037ff07000000e00002003200eb
:101a68001000200041003700edfe07000000e000f4
:101a780002003200200020003c0037002e40900079
:101a880043ff07000000e0000200320030002000a1
:101a9800360037000e00780057ff07000000e0000e
:101aa8000200320040002000300037003e40900025
:101ab80037ff07000000e00002003200300020007d
:101ac8002a0037000e0078004bff07000000e000f6
:101ad800020032004000200024003700e7fe070023
:101ae8000000e00002003200600020001f00370004
:101af8002e4090000004a00025ff07000000e00031
:101b08000200320030002000180037000e00780074
:101b180039ff07000000e00002003200400020000a
:101b280012003700ee4090002e009000a4ff07003e
:101b38000000e00002003200700020000b003700b7
:101b48004bff07000000e000020032008000200088
:101b580006003700e0fe07000000e0000200320047
:101b680050002000010037000000eb000080fa0060
:101b7800000006000600fa00204798003147980048
:101b880042479800ebfe07000000e0000200320028
:101b9800100020002f003700a1fe07000000e00021
:101ba80002003200200020002a0037002e4090005a
:101bb800f7fe07000000e0000200320030002000bd
:101bc800240037000e0078000bff07000000e0003b
:101bd80002003200400020001e0037003e40900006
:101be800ebfe07000000e000020032003000200099
:101bf800180037000e007800fffe07000000e00024
:101c08000200320040002000120037004e409000d1
:101c1800dffe07000000e000020032003000200074
:101c28000c0037000e007800f3fe07000000e0000b
:101c3800020032004000200006003700a6fe070020
:101c48000000e000020032005000200001003700d0
:101c58000000eb000080fa00000006000000fa0017
:101c68000021ef00f0342c001008880021088000c3
:101c7800f0fc2f00008060000040a00020088800d1
:101c88000421a90004c1a9009460a8008460a900e7
:101c980005e1a8000080fa00000006000000fa0034
:101ca8000621ef00f04180000000e900600888008c
:101cb80081088000f0fc2f00008060000040a00038
:101cc800800888001021a90010c1a90094e0a8008c
:101cd80084e0a90011e1a8000080fa0000000600d5
:101ce8000000fa000a21ef00f07022007008880056
:101cf80091088000f0fc2f000080600090088800a8
:101d08001221a90012c1a9009500a8008500a90008
:101d180013e1a8000080fa00000006000000fa00a5
:101d28001421ef00701a2600d0088800f1088000fe
:101d3800f0fc2f00008060000040a000f008880040
:101d48001e21a9001ec1a9009760a8008760a900ec
:101d58001fe1a8000080fa00000006000000fa0059
:101d68001821ef00f0c32900e0088800010980006d
:101d7800f0fc2f0000806000000988002021a900e5
:101d880020c1a9009780a8008780a90021e1a800a8
:101d98000080fa00000006000000fa002221ef008f
:101da800205725004009880061098000f0fc2f00b9
:101db800008060000050a000600988002c21a90064
:101dc8002cc1a90099e0a80089e0a9002de1a8008c
:101dd8000080fa00000006000000fa002621ef004b
:101de800701a26005009880071098000f0fc2f0045
:101df800008060000040a000700988002e21a90022
:101e08002ec1a9009a00a8008a00a9002fe1a80005
:101e18000080fa00000006000400fa00000f7800b5
:101e2800110798003421ef001e00e900c00988005e
:101e38001e00900000407800634060000080fb00b6
:101e4800630060004400dd00e2098000f1fc2f001f
:101e58008100610001007000e00988003c21a900b0
:101e68003cc1a9009a80a8008a80a9003de1a80089
:101e78000080fa00000006000600fa00200798001b
:101e88000000eb00000f7800ae009000c0cc2000ee
:101e9800808f50000800340010002000000f7800e8
:101ea8002e0090000000e00001003d0067004000a7
:101eb8004380de00200798002e0090007400b900cf
:101ec80000007800100798009e0078001e0090001f
:101ed800d1ff070000000000004080000000e00083
:101ee800fdff32000028ef000080fa000000060025
:101ef8000600fa00200798002e009000e20f50001c
:101f080008003c000000eb0010079800ae009000ad
:101f180000e224000088b90000007800000f780073
:101f2800120037002e009000fa0f500008003c0005
:101f38001000200010079800ae009000409c200080
:101f48000088b90000007800000f7800070037000b
:101f58002000200010079800ae0090009013200089
:101f68000088b90000007800000f78009e009000fb
:101f78001e007800a8ff0700000000000040800055
:101f88000000e000fdff32000028ef000080fa00aa
:101f9800000006000800fa00000f780011079800fa
:101fa80022079800330798001e0078008000eb0095
:101fb800010878001e0090008000eb0001087800fe
:101fc8002e0090008000eb00010878003e00900091
:101fd8008000eb00010878000080fa00000006008d
:101fe8000800fa00000f78001107980022079800ef
:101ff800330798001e0078008000eb000108780085
:102008001e0090008000eb00010878002e00900070
:102018008000eb00010878003e0090008000eb0093
:1020280001087800c422a900c462a900c4a2a900ba
:102038000080fa00000006000a00fa001007980065
:102048002107980032079800430798001040800045
:10205800e10f50008f003a0071098000000028004d
:10206800008060000000e0008a0032000228ef00d3
:102078001e00900010007800ea0040001e0090004a
:10208800010878001e0090009000780040062000ab
:10209800808f50007f003a002016800062006000a8
:1020a80000f0a7000000ea000000e9004f00de0091
:1020b800004078000080fb006100600000004000e4
:1020c800211680000110a100010070002016880070
:1020d8001e0090008000eb00010878002e009000a0
:1020e800100078008000e8002e00900001087800b9
:1020f8002e00900010007800ea0f50005d003a00b2
:10210800201680006800600000f0a7000000ea00c8
:102118000000e9004f00de00004078000080fb006e
:10212800610060004300dd00211680000130a1003d
:1021380001007000201688002e0090008000eb003f
:10214800010878003e009000100078008000e80048
:102158003e009000010878002e00900010007800e2
:10216800800078000e007800790107009e409000fa
:1021780020872000014878003e00900090007800f9
:10218800c0032000808f50002e003a0021168000e6
:10219800000220000080600000f0a7000000ea00b4
:1021a8000000e9004f00de00004078000080fb00de
:1021b800610060004500dd00211680000150a1008b
:1021c80001007000201688003e0090008000eb009f
:1021d800010878004e009000100078008000e800a8
:1021e8004e009000010878003e0090001000780032
:1021f800800078000e007800550107009e407800a6
:10220800f0862000014878009e409000008720005a
:10221800014878004e009000100078008000780097
:102228000e0078004a0107009e407800c086200012
:10223800014878009e409000d08620000148780030
:10224800140037003e0090001000780080007800ed
:102258000e0078003e0107009e407800f0862000be
:10226800014878009e4090000087200001487800cf
:10227800080037002e0090001000780080007800d9
:102288000e007800320107009e4090002087200051
:10229800014878000080fa00000006000c00fa00ef
:1022a800f802070020030700d5fc0700cafe070054
:1022b8008bfe07009d0207006a030700a7fe0700c0
:1022c8007203070066014700e40047000e80e8003b
:1022d8008201780001017800800078000e00780003
:1022e8002cff0700bc0207006a0047008000eb00d3
:1022f80017010700ae489000c0862000014878000a
:10230800ae489000d086200001487800ae48900082
:10231800f086200001487800ae4890000087200031
:1023280001487800ae4890002087200001487800d6
:102338003422ef00cf0207001203070057fe070000
:1023480046fe070060ceb3002503070092fe070093
:10235800010037000000000066014700e400470064
:102368000e80e80082017800010178008000780082
:102378000e00780030ff0700b0408000e10f5000e9
:10238800c1003a006099200082010700c04088001f
:10239800609a20007f010700d0408800609b2000e1
:1023a8007c010700e0408800609c2000790107005c
:1023b800f0408800609d20007601070000418800f9
:1023c800609e20007301070010418800609f200074
:1023d8007001070020418800c1408000208520004e
:1023e8002004b00042002000fd000700d14080001a
:1023f800208520005005b00032002000f8000700ba
:10240800e1408000208520006006b00042002000e6
:10241800f3000700f1408000208520008007b0000d
:1024280042002000ee0007000141800020852000c6
:10243800a008b00042002000e90007001141800018
:1024480020852000c009b00042002000e4000700f9
:102458002141800020852000e00ab00042002000d1
:10246800df00070040428000e10f500085003a007d
:10247800504280000000e00082003a00e140800005
:10248800d01a2000808f50000b003e00f1418000e0
:10249800c05d2000808f500004003600f0418000ad
:1024a80074005000f041880011003700c05d200022
:1024b800f04188000e003700e1408000a01e200097
:1024c800808f50000a003600f1418000b05721008b
:1024d800808f500004003e00f041800074004000ee
:1024e800f041880002003700c0572100f041880001
:1024f800f1408000a01e2000808f50000b003600a5
:1025080001428000b0572100808f500004003e0037
:10251800004280007400400000428800110037002b
:10252800c0572100004288000e003700f1408000ab
:10253800f0182000808f50000a003e000142800001
:10254800c05d2000808f50000400360000428000eb
:10255800740050000042880002003700c05d20006f
:10256800004288002141800080202000808f500098
:102578000e00360080428000e50f5000190036003a
:1025880011428000b0572100808f500004003e00a7
:10259800104280007400400010428800110037008b
:1025a800c0572100104288000e00370021418000ea
:1025b800f01d2000808f50000a003e00114280006c
:1025c800c05d2000808f500004003600104280005b
:1025d800740050001042880002003700c05d2000df
:1025e8001042880011418000401f2000808f500059
:1025f8000b0036003142800070832100808f50002c
:1026080004003e00304280008002b0003042880062
:102618001100370080832100304288000e00370007
:1026280011418000f01d2000808f50000a003e00fc
:102638003142800000c82000808f5000040036001e
:10264800304280008002b10030428800020037002a
:1026580000c8200030428800004180008000eb0064
:102668002dfb070022852b00e307240041fb070010
:102678000efb070080007800304180000080400099
:10268800604288001628ef0090408000e10f50005b
:1026980010003a00680047008000780060ceb30060
:1026a8005902070068004700a70007008042880019
:1026b8008142800020852000d012b0003200200026
:1026c8004700070060ceb30045020700b2fd0700cf
:1026d8001228ef00f141800020852000200db00075
:1026e800420020003e0007000142800020852000b3
:1026f800400eb0004200200039000700114280005f
:1027080020852000600fb000420020003400070040
:1027180021428000208520008010b0004200200067
:102728002f0007003142800020852000a011b00052
:10273800420020002a000700804080000000e000de
:1027480004ff32000000eb000080fa0000000600e1
:102758000600fa001007980021079800ae009000c4
:1027680030062000808f500001003600ffff370040
:10277800ae009000d0cc2c000008b8004308de0062
:10278800004f78001e80fb0061a02000614f780098
:102798001e0090001e4878001e0090000000e8000f
:1027a800100798002e019000d0cc2c000010b80023
:1027b8004308de006a00b9000000780000005100fc
:1027c800004f78001e80fb0061a02000614f780058
:1027d8001e0090001e4878000080fa0000000600e5
:1027e8000a00fa002007980031079800420798006d
:1027f8000000eb00000f7800180037003e01900041
:10280800d0cc2c000010b8004308de006a00b900e4
:102818000000780000005100204798004e0090000a
:102828001e0050000000e900ae009000008040004b
:10283800ae4090008180fb0062a02000e2c07800da
:1028480001487800be009000d0cc2c000008b800e9
:102858004308de00300798001e0fe8004e00900085
:102868009e007800808f5000e4ff39000080fa0055
:10287800000006000e00fa00400798005107980073
:10288800620798000000eb00000f7800ce0090006f
:1028980011079800180037001e0090006f006000b4
:1028a800300798003e009000e90f500008003e00f5
:1028b8005e0090001e004000be009000814078003d
:1028c8000143b000014878001e0fe80007003700f8
:1028d8005e0090001e004000be009000814078001d
:1028e8007143b000014878001e0fe8001e009000f8
:1028f8004400de00100798001e0090000000e00071
:10290800e5ff3a009e00780021079800080037008c
:102918002e009000de0090000080400001c3b3004c
:10292800014878002e0090000000e8002007980079
:10293800ae0090006e009000808f5000f4ff3900c8
:102948000080fa00000006000400fa001007980052
:102958000000eb00000f78001e0090001040780087
:102968000080fb00000f78001e0078004800dd00a2
:10297800000f78001e0090000000e800104078006a
:102988000080fb001e0f70001e0078000080fa0017
:10299800000006000800fa00300798000000eb006d
:1029a800100798000000eb00200798000000eb00db
:1029b800000f7800090037001e0078000000400072
:1029c800be00900000804000100078009e0090003b
:1029d80000804000100798001e0fe8001e007800d5
:1029e800e70f5000f4ff34001e0090004300de00a3
:1029f800200798002e0090000080fa0000000600d2
:020000040000fa
:102a08000008000014000000000000004c0800004e
:102a18000200000002000000f40100003408000079
:102a28000a000000000000004e080000020000003c
:102a38000200000020000000060a0000100000004c
:102a480002000000303132003334350036373800a8
:102a580039000000000000000000000052080000db
:102a680044010000020000002d20440053452000ce
:102a780032303200312d320032202d002d0d0a0067
:102a8800546965006d706f003a202d002d3a2d00b5
:102a98002d3a2d00200d0a002d2049004e464f00ea
:102aa800205049004332340048202d002d0d0a00e3
:102ab800506f7400656e3a0020202000202020000e
:102ac8002d2d2d002d0d0a0054656d0070653a00fe
:102ad8002020200020202000202d2d002d0d0a0070
:102ae8004a6f790073746900636b2000583a2000bc
:102af8002d2d2d002d0d0a004a6f79007374690081
:102b0800636b2000593a20002d2d2d002d0d0a0051
:102b18004a6f790073746900636b20005a3a200089
:102b28002d2d2d002d0d0a004d696e0069204a00db
:102b38006f792000583a20002d2d2d002d0d0a0008
:102b48004d696e0069204a006f792000593a2000cb
:102b58002d2d2d002d0d0a002d2d2000494e46004b
:102b68004f20420052415a004f202d002d0d0a00df
:102b780053657200766f2000313a20002020200033
:102b88002d2d2d002d0d0a0053657200766f200043
:102b9800323a2000202020002d2d2d002d0d0a0076
:102ba80053657200766f2000333a20002020200001
:102bb8002d2d2d002d0d0a0053657200766f200013
:102bc800343a2000202020002d2d2d002d0d0a0044
:102bd80053657200766f2000353a200020202000cf
:102be8002d2d2d002d0d0a004469730074616e00af
:102bf800636961003a202000202d2d002d0d0a0068
:102c08002d2d2d002d2d2d002d2d2d002d2d2d00a0
:102c18002d2d2d002d0d0a009609000070000000d2
:102c2800000000001408000012000000000000006e
:102c3800480800000400000000000000260800000a
:102c48000e00000002000000dc057c0015a60e0046
:102c58007c154a00152e0900381800003e080000af
:102c68000a000000000000005008000002000000f8
:082c7800000000000000000054
:020000040000fa
:102c80000200fa00004f7800d6a2a900cbe2a9000a
:102c9000e116800000f02f0000806000e016880040
:102ca0009e00fb00e016800001007000e016880026
:102cb000d682a80000000000000000000000000014
:102cc0000000000000000000d682a900d6a2a800e3
:102cd0000080fa00000006000200fa00004f7800b1
:102ce000d6a2a900cbe2a800e116800000f02f00d8
:102cf00000806000e01688009e00fb00e016800067
:102d000001007000e0168800d682a80000000000d4
:102d100000000000000000000000000000000000b3
:102d2000d682a900cbe2a900d6a2a8000080fa00b2
:102d3000000006000000fa00f00020006efc070012
:102d4000e116800000f02f0000806000e01688008f
:102d5000d6a2a900cbe2a900d682a900c1168000a4
:102d600000f02f0000806000c0168800d2a2a900e9
:102d7000c7e2a900d282a90080c3b300c0ff070048
:102d8000500020005cfc070080c3b300bcff0700bc
:102d9000400620003afc070080c3b300b8ff0700dc
:102da0008002200036fc070080c3b300b4ff070098
:102db0008002200032fc0700c0c0b300b0ff070053
:102dc000800220002efc070060c0b300acff0700ab
:102dd000800220002afc07000080fa0000000600a4
:102de0000000fa002023ef0001198000000e2000ef
:102df00001007000001988002223ef002423ef0057
:102e00002119800000f021000100700020198800c5
:102e100030c0b30024e3b7003223ef002623ef00d5
:102e20002823ef004119800000fe2f000080600081
:102e3000401988002e23ef003023ef000080eb00c4
:102e4000501988000080eb00601988002ca3a900ad
:102e50002c83a9002c03a9002c23a9002c43a90032
:102e60002d03a9002d23a90085a0a90095a0a800e5
:102e700021e3a8000080fa00000006000000fa002c
:102e80002023a8000080fa00000006000000fa00dd
:102e900020012000303a8800213a8000f0f32f0012
:102ea00000806000203a8800213a800000fe2f0058
:102eb00000806000203a880040a7a900320020006e
:102ec00080072000a1092000337420008049780089
:102ed00081497800824978001200200060042000b7
:102ee0007105200023742000804978008149780012
:102ef0008249780000000000113a8000000027009d
:102f00008080600000002300808f5000faff3a00ac
:102f100000000000113a80000002200000806000e4
:102f20000000e000fbff32000080fa000000060015
:102f30000000fa00c00a2000c01188003022ef0013
:102f40003062a8008111800090ff2f000080600097
:102f50000020a000801188003222ef0087c0a90065
:102f600087e0a90097c0a80097e0a8009c40a900ae
:102f70003222a90031e2a8003342a800300220002a
:102f8000bffb07000080fa00000006000000fa0006
:102f9000d202a900d222a900d242a900d262a9007d
:102fa000c762a900d602a900d622a900d642a9006c
:102fb000d662a900cb62a90020cb2000f041880096
:102fc00020cb20000042880020cb20001042880047
:102fd00020cb20002042880020cb200030428800f7
:102fe0000080fa00000006000400fa002047980064
:102ff00012c5b3008040eb002e409000dffa0700be
:10300000000f78001e0078000080fa000000060023
:103010000600fa00204798002107980023c0b3005b
:103020002e01900021c0b3002e40900086fa0700c8
:10303000000f78001e0078000080fa0000000600f3
:103040000000fa0000f02f000016880000000000c9
:10305000000000002116800000f02f0000806000ba
:10306000201688000080fa00000006000000fa0028
:103070000080eb0050198800d2c2a800d2e2a8005c
:10308000d3a2a800c0e2a800c662a8000080fa008f
:10309000000006000000fa0061e0a8006200a8003d
:1030a00062e0a80060a0a8009660a8008660a90061
:0830b0000080fa000000060098
:020000040000fa
:0200000401f009
:04000c00fbff0000f6
:020000040000fa
:0200000401f009
:040010007dff000070
:020000040000fa
:0200000401f009
:040014007fff00006a
:00000001FF
