:020000040000fa
:080000000002040000000000f2
:020000040000fa
:04000800d00700001d
:020000040000fa
:04000c00d007000019
:020000040000fa
:04001000d007000015
:020000040000fa
:04001400d007000011
:020000040000fa
:04001800d00700000d
:020000040000fa
:04001c00d007000009
:020000040000fa
:04002000d007000005
:020000040000fa
:04002400d007000001
:020000040000fa
:04002800d0070000fd
:020000040000fa
:04002c00d0070000f9
:020000040000fa
:04003000d0070000f5
:020000040000fa
:04003400d0070000f1
:020000040000fa
:04003800d0070000ed
:020000040000fa
:04003c00d0070000e9
:020000040000fa
:04004000d0070000e5
:020000040000fa
:04004400c8020000ee
:020000040000fa
:040048007c03000035
:020000040000fa
:04004c00d0070000d9
:020000040000fa
:04005000d0070000d5
:020000040000fa
:04005400d0070000d1
:020000040000fa
:04005800d0070000cd
:020000040000fa
:04005c007806000022
:020000040000fa
:04006000d0070000c5
:020000040000fa
:04006400d0070000c1
:020000040000fa
:04006800d0070000bd
:020000040000fa
:04006c00d0070000b9
:020000040000fa
:04007000d0070000b5
:020000040000fa
:04007400740700000d
:020000040000fa
:04007800d0070000ad
:020000040000fa
:04007c00d0070000a9
:020000040000fa
:04008000d0070000a5
:020000040000fa
:04008400d0070000a1
:020000040000fa
:04008800d00700009d
:020000040000fa
:04008c00d007000099
:020000040000fa
:04009000d007000095
:020000040000fa
:04009400d007000091
:020000040000fa
:040098009a030000c7
:020000040000fa
:04009c00d007000089
:020000040000fa
:0400a0005404000004
:020000040000fa
:0400a4000206000050
:020000040000fa
:0400a800d00700007d
:020000040000fa
:0400ac00d007000079
:020000040000fa
:0400b000d007000075
:020000040000fa
:0400b400d007000071
:020000040000fa
:0400b800d00700006d
:020000040000fa
:0400bc00d007000069
:020000040000fa
:0400c000d007000065
:020000040000fa
:0400c400d007000061
:020000040000fa
:0400c800d00700005d
:020000040000fa
:0400cc00d007000059
:020000040000fa
:0400d000d007000055
:020000040000fa
:0400d400d007000051
:020000040000fa
:0400d800d00700004d
:020000040000fa
:0400dc00d007000049
:020000040000fa
:0400e000d007000045
:020000040000fa
:0400e400d007000041
:020000040000fa
:0400e80032040000de
:020000040000fa
:0400ec00d007000039
:020000040000fa
:0400f000d007000035
:020000040000fa
:0400f400d007000031
:020000040000fa
:0400f80042040000be
:020000040000fa
:0400fc00d007000029
:020000040000fa
:04010000d007000024
:020000040000fa
:04010400d007000020
:020000040000fa
:04010800d00700001c
:020000040000fa
:04010c00d007000018
:020000040000fa
:04011000d007000014
:020000040000fa
:04011400d007000010
:020000040000fa
:04011800d00700000c
:020000040000fa
:04011c00d007000008
:020000040000fa
:04012000d007000004
:020000040000fa
:04012400d007000000
:020000040000fa
:04012800d0070000fc
:020000040000fa
:04012c00d0070000f8
:020000040000fa
:04013000d0070000f4
:020000040000fa
:04013400d0070000f0
:020000040000fa
:04013800d0070000ec
:020000040000fa
:04013c00d0070000e8
:020000040000fa
:04014000d0070000e4
:020000040000fa
:04014400d0070000e0
:020000040000fa
:04020800d00700001b
:020000040000fa
:04020c00d007000017
:020000040000fa
:04021000d007000013
:020000040000fa
:04021400d00700000f
:020000040000fa
:04021800d00700000b
:020000040000fa
:04021c00d007000007
:020000040000fa
:04022000d007000003
:020000040000fa
:04022400d0070000ff
:020000040000fa
:04022800d0070000fb
:020000040000fa
:04022c00d0070000f7
:020000040000fa
:04023000d0070000f3
:020000040000fa
:04023400d0070000ef
:020000040000fa
:04023800d0070000eb
:020000040000fa
:04023c00d0070000e7
:020000040000fa
:04024000d0070000e3
:020000040000fa
:04024400d0070000df
:020000040000fa
:04024800d0070000db
:020000040000fa
:04024c00d0070000d7
:020000040000fa
:04025000d0070000d3
:020000040000fa
:04025400d0070000cf
:020000040000fa
:04025800d0070000cb
:020000040000fa
:04025c00d0070000c7
:020000040000fa
:04026000d0070000c3
:020000040000fa
:04026400d0070000bf
:020000040000fa
:04026800d0070000bb
:020000040000fa
:04026c00d0070000b7
:020000040000fa
:04027000d0070000b3
:020000040000fa
:04027400d0070000af
:020000040000fa
:04027800d0070000ab
:020000040000fa
:04027c00d0070000a7
:020000040000fa
:04028000d0070000a3
:020000040000fa
:04028400d00700009f
:020000040000fa
:04028800d00700009b
:020000040000fa
:04028c00d007000097
:020000040000fa
:04029000d007000093
:020000040000fa
:04029400d00700008f
:020000040000fa
:04029800d00700008b
:020000040000fa
:04029c00d007000087
:020000040000fa
:0402a000d007000083
:020000040000fa
:0402a400d00700007f
:020000040000fa
:0402a800d00700007b
:020000040000fa
:0402ac00d007000077
:020000040000fa
:0402b000d007000073
:020000040000fa
:0402b400d00700006f
:020000040000fa
:0402b800d00700006b
:020000040000fa
:0402bc00d007000067
:020000040000fa
:0402c000d007000063
:020000040000fa
:0402c400d00700005f
:020000040000fa
:0402c800d00700005b
:020000040000fa
:0402cc00d007000057
:020000040000fa
:0402d000d007000053
:020000040000fa
:0402d400d00700004f
:020000040000fa
:0402d800d00700004b
:020000040000fa
:0402dc00d007000047
:020000040000fa
:0402e000d007000043
:020000040000fa
:0402e400d00700003f
:020000040000fa
:0402e800d00700003b
:020000040000fa
:0402ec00d007000037
:020000040000fa
:0402f000d007000033
:020000040000fa
:0402f400d00700002f
:020000040000fa
:0402f800d00700002b
:020000040000fa
:0402fc00d007000027
:020000040000fa
:04030000d007000022
:020000040000fa
:04030400d00700001e
:020000040000fa
:04030800d00700001a
:020000040000fa
:04030c00d007000016
:020000040000fa
:04031000d007000012
:020000040000fa
:04031400d00700000e
:020000040000fa
:04031800d00700000a
:020000040000fa
:04031c00d007000006
:020000040000fa
:04032000d007000002
:020000040000fa
:04032400d0070000fe
:020000040000fa
:04032800d0070000fa
:020000040000fa
:04032c00d0070000f6
:020000040000fa
:04033000d0070000f2
:020000040000fa
:04033400d0070000ee
:020000040000fa
:04033800d0070000ea
:020000040000fa
:04033c00d0070000e6
:020000040000fa
:04034000d0070000e2
:020000040000fa
:04034400d0070000de
:020000040000fa
:10040000cf9d20000e7f24000e0188000000000018
:10041000000020000000e000020032000001200087
:100420002002880014000700df0207000000e0003f
:1004300003003a006006210001002000020037009e
:100440000000200001002000810f70000100320038
:1004500014000700000020000000e000020032004d
:100460000000020000000000200f02000000000059
:100470000040da000000fe004440a90040002000d7
:100480000000e0000300320000002000a00188000e
:100490004440a800000006008a1f78008b1f7800e7
:1004a0000000060091018800800478000000eb0045
:1004b0001a003700e284440032a0b4009905ba0063
:1004c000e284440032a0b4009906ba00e2844400f9
:1004d00032a0b4000006eb00476fde00fd07b2005b
:1004e000636ce10003003a00ebff07000000eb0043
:1004f0000a003700606ce10004003a00005deb0088
:100500008b05e900fdff3e00040037006168e10053
:10051000010032000086eb000b00070019c7ba008b
:100520001905ba000e04e00003003a000a00e000da
:10053000e0ff3a0000000600fe07b2009e018800be
:100540008a047800f5ff3700395dba008b05e900b1
:100550000c003200295dba008b05e900080032006a
:100560000c00e00003003a00e284440032a0b40032
:10057000f5ff370019ddba008b05e900faff3a00f4
:100580008904e800e184440032a0b40000000600c1
:10059000809fbe000000fa00e0408000e20f5000a3
:1005a00023003200e20f500005003e000000e00092
:1005b0000a003200e10f5000110032004a003700fb
:1005c000e40f500032003200e40f500024003900e4
:1005d000e50f50003a00320043003700d602a80071
:1005e000504180006008880060088000d04088008a
:1005f000e04080000000e800e04088003a0037005a
:10060000d602a900d622a8006041800060088800b8
:10061000d14080006008800000804000d040880009
:10062000e04080000000e800e04088002e00370035
:10063000d622a900d642a800704180006008880038
:10064000d14080006008800000804000d0408800d9
:10065000e04080000000e800e04088002200370011
:10066000d642a900d662a8008041800060088800b8
:10067000d14080006008800000804000d0408800a9
:10068000e04080000000e800e040880016003700ed
:10069000d662a900cb62a800904180006008880063
:1006a000d14080006008800000804000d040880079
:1006b000e04080000000e800e04088000a003700c9
:1006c000cb62a90060088000d0408800d040800044
:1006d000f1342c0000805000600888001a28ef00d8
:1006e0001c28ef000000000084e0a9000080fa0050
:1006f0004f00be00004006003600f800809fbe009c
:10070000829fbe00849fbe00869fbe000000fa004c
:10071000750707008500a9000080fa004f03be009e
:100720004f02be004f01be004f00be003600f90070
:10073000004006003600f800809fbe00829fbe0089
:10074000849fbe00869fbe000000fa00b04080007b
:10075000e10f50000d003200e10f5000050039009c
:10076000e20f50001c003200e30f50002000320066
:100770003400370000c8b300dc060700b04080003a
:100780000000e800b04088002e003700f0408000f4
:10079000c24080007200b9000000780002004000f2
:1007a000c183200061407800e6060700c040800059
:1007b0000000e800c0408800c0408000f00f5000fa
:1007c0001d003a001828ef00b04080000000e8004b
:1007d000b04088001b00370000ccb300c306070000
:1007e000b04080000000e800b040880015003700ed
:1007f000f04080000000e800c24080007200b900b4
:100800000000780002004000c183200061407800b1
:10081000cc060700c04080000000e800c04088000f
:10082000c0408000f00f500005003a001828ef008b
:100830001628ef0003003700000000000100370019
:10084000000000008780a9000080fa004f03be006e
:100850004f02be004f01be004f00be003600f9003f
:1008600000400600801f78000000fa001000200001
:10087000a04088008a00a9000080fa004f0078009c
:1008800000400600801f78000000fa0010002000e1
:10089000904088003de1a9008a80a9000080fa000c
:1008a0004f00780000400600809fbe00829fbe007f
:1008b0000000fa00b01180000040780038e8b7006e
:1008c00038c8bf000080fb00f1062000810f5000f7
:1008d0000800320001072000810f50000c00320098
:1008e00091062000810f500013003a002fe1a9006b
:1008f00011003700710980000000280000806000ae
:100900000000e000090032002fe1a9000a003700d2
:100910007109800000002800008060000000e000f5
:1009200004003a002fe1a800030037000000000097
:100930000100370000000000d04180000000e0000e
:10094000ab003a0038c8bf000080fb006101b9006d
:10095000f0f92f00f1ff2f000200400083804800d3
:100960008201200003002000820f5000838f580076
:100970009c003e0000600100180037009b0037001b
:100980009a003700220037009800370054003700e3
:100990007a0037006c00370094003700840037007d
:1009a0009200370091003700900037008f00370029
:1009b0008e0037008d0037008c0037003b00370079
:1009c0002d00370089003700880037008700370086
:1009d0001c003700850037004e0037005041800072
:1009e0002103200080804000b0418000808f5000b3
:1009f00004003100504180002003b00050418800c5
:100a00007b003700b04180005041880078003700fb
:100a100050418000e1fc2f0080804000a041800018
:100a2000808f500004003600504180002003b10048
:100a3000504188006e003700a0418000504188007e
:100a40006b0037006041800021032000808040005f
:100a5000b0418000808f5000040031006041800070
:100a60002003b0006041880061003700b041800081
:100a7000604188005e00370060418000e1fc2f008b
:100a800080804000a0418000808f5000040036002c
:100a9000604180002003b1006041880054003700ad
:100aa000a041800060418800510037007041800003
:100ab0002103200080804000b0418000808f5000e2
:100ac00004003100704180002003b00070418800b4
:100ad00047003700b0418000704188004400370073
:100ae00070418000e1fc2f0080804000a041800028
:100af000808f500004003600704180002003b10058
:100b0000704188003a003700a041800070418800a1
:100b100037003700804180002103200080804000a2
:100b2000b0418000808f500004003100804180007f
:100b30002003b000804188002d003700b0418000c4
:100b4000804188002a00370080418000e1fc2f00ae
:100b500080804000a0418000808f5000040036005b
:100b6000804180002003b1008041880020003700d0
:100b7000a0418000804188001d0037009041800026
:100b8000210320008080400070832100808f50006e
:100b900004003e00904180002003b0009041880096
:100ba0001300370080832100904188001000370037
:100bb00090418000e1fc2f0080804000c0c12000f7
:100bc000808f500004003600904180002003b10067
:100bd0009041880006003700c0c120009041880085
:100be0000300370000000000010037000000000093
:100bf00087c0a9000080fa004f01be004f00be0070
:100c000000400600809fbe00821f78000000fa00ae
:100c1000004180000000e00010003a001041800018
:100c2000617d2800614078000000fb00a011880071
:100c3000104180000000e800104188001041800051
:100c4000e30f500025003a002228ef000041800009
:100c50000000e800004188002000370020418000ab
:100c6000324180007200b9000000780002004000ac
:100c7000c1832000614078000080fb00a011880043
:100c8000304180000000e8003041880020418000b1
:100c9000ef0f50000800320030418000f20f50008a
:100ca00005003a00204180000000e8002041880053
:100cb0002628ef000900370020418000ef0f500088
:100cc00006003a0030418000f20f500003003a0065
:100cd0002028ef002628ef002428ef0087e0a90055
:100ce0000080fa004f0178004f00be00004006006f
:100cf000809fbe00821f78000000fa001040800034
:100d00000000e00073003a004019800000407800c5
:100d10007f4060000080fb00e40f50003400320090
:100d2000e40f500007003c00e10f500018003200b3
:100d3000e20f5000220032000000e0000800320004
:100d400064003700e80f500041003200e90f500006
:100d50004b003200e50f5000310032005d003700db
:100d6000004080000118800000014000c097200072
:100d700000004100010878004119800000fe2f00aa
:100d8000008060000000a00040198800510037007a
:100d9000004080000118800000014000c098200041
:100da00000004100010878004119800000fe2f007a
:100db000008060000010a000401988004500370046
:100dc000004080000118800000014000c099200010
:100dd00000004100010878004119800000fe2f004a
:100de000008060000020a000401988003900370012
:100df000004080000118800000014000c0962000e3
:100e000000004100010878004119800000fe2f0019
:100e1000008060005000b300401988002d003700aa
:100e2000004080000118800000014000c0952000b3
:100e300000004100010878004119800000fe2f00e9
:100e4000008060000030a0004019880021003700b9
:100e5000004080000118800000014000c09a20007e
:100e600000004100010878004119800000fe2f00b9
:100e7000008060009000b300401988001500370022
:100e8000004080000118800000014000c09b20004d
:100e9000000041000108780000408000e70f50008a
:100ea00004003200004080000000e800004088009c
:100eb000030037000028ef001000200010408800d9
:100ec0004119800000fe2f0000806000401988005a
:100ed0000000000085a0a9000080fa004f01780002
:100ee0004f00be0000400600809fbe000000fa00d8
:100ef000a116800000042000008060000000e000d7
:100f000006003a00f0408000ee0f5000030032006f
:100f1000f04080000080e800f0408800a1168000ca
:100f200000082000008060000000e00006003a0099
:100f3000f04080000000e00003003200f04080003c
:100f40000080e900f04088001116800000082000b1
:100f5000008060000000e00006003a00d041800000
:100f600000f0a7000000ea000000e9004f00de00ea
:100f7000d041880040168000680060000000e0005a
:100f800001003a0000000000000000000000000026
:100f90008660a9000080fa004f00be0000400600f5
:0c0fa0000040da000000fe000000050028
:020000040000fa
:080fac001b5b0000480000007f
:020000040000fa
:100fb4000000fa00500c20002010880000202100be
:100fc4003010880007e2a8000080fa000000060044
:100fd4000200fa000602a8000000eb00000f7800ef
:100fe400010037001e0fe80030108000610060002f
:100ff4000000e00004003200703e20009e007800f3
:10100400808f5000f7ff3600703e20009e0078006d
:10101400808f5000020036001000200001003700cd
:101024000000eb000080fa00000006000200fa0055
:101034000622a8000000eb00000f78000100370032
:101044001e0fe80030108000620060000000e00025
:1010540004003200703e20009e007800808f500013
:10106400f7ff3600703e20009e007800808f50000d
:101074000200360010002000010037000000eb00e1
:101084000080fa00000006000200fa000642a800f0
:101094000000eb00000f7800010037001e0fe8008d
:1010a40030108000640060000000e00004003200a2
:1010b400703e20009e007800808f5000f7ff3600bd
:1010c400703e20009e007800808f500002003600a1
:1010d40010002000010037000000eb000080fa003f
:1010e400000006000200fa000000eb00000f780088
:1010f400010037001e0fe8004110800000002400aa
:10110400008060000000e00004003200703e200017
:101114009e007800808f5000f6ff3600703e20005d
:101124009e007800808f50000200360010002000de
:10113400010037000000eb000080fa000000060008
:101144000400fa00204798002e4090000080fb0025
:10115400101088000000eb00000f78000100370039
:101164001e0fe80040108000610060000000e000f5
:1011740004003200703e20009e007800808f5000f2
:10118400f7ff3600703e20009e007800808f5000ec
:101194000200360010002000010037000000eb00c0
:1011a4000080fa00000006000400fa00100798000e
:1011b4000000eb00000f7800010037001e0fe8006c
:1011c4004110800000002400008060000000e00066
:1011d40004003200703e20009e007800808f500092
:1011e400f6ff3600703e20009e007800808f50008d
:1011f4000200360010002000070037004010800075
:101204004f00de00004078008080fb001e0090004c
:10121400010878000000eb000080fa0000000600de
:101224000200fa0006a2a8000682a8000000eb0053
:10123400000f7800010037001e0fe8003010800016
:10124400700060000000e00004003200703e2000e6
:101254009e007800808f5000f7ff3600703e20001b
:101264009e007800808f500002003600100020009d
:10127400010037000000eb000080fa0000000600c7
:101284000200fa0006a2a9000682a8000000eb00f2
:10129400000f7800010037001e0fe80030108000b6
:1012a400700060000000e00004003200703e200086
:1012b4009e007800808f5000f7ff3600703e2000bb
:1012c4009e007800808f500002003600100020003d
:1012d400010037000000eb000080fa000000060067
:1012e4000400fa00100798000662a8000000eb0052
:1012f400000f7800010037001e0fe8004010800046
:101304006200600000f0a7000000ea000000e900ad
:101314004f00de008040780010c0b300723e200011
:101324009e017800828f5100010034000040eb00e0
:1013340000c060000004e000efff3a00703e2000af
:101344009e007800808f50000200340010002000be
:101354000500370000108000804078001e009000d7
:10136400014878000000eb000080fa00000006004d
:101374000400fa00000f7800214798000f0037009e
:101384001e007800d6ff07000000e00002003200d3
:1013940010002000140037001e0fe8002e409000bb
:1013a4000004e00005003200b5ff07000000e00083
:1013b40002003200200020000b0037002e40900075
:1013c4000080fb000000ea004f00de0000407800cf
:1013d400ae4090008140e900214798000004e000fd
:1013e400e7ff3a000000eb000080fa00000006006e
:1013f4000800fa0020479800314798002207980017
:101404006347980037ff07000000e0000200320045
:101414001000200041003700edfe07000000e0004e
:1014240002003200200020003c0037002e409000d3
:1014340043ff07000000e0000200320030002000fb
:10144400360037000e00780057ff07000000e00068
:101454000200320040002000300037003e4090007f
:1014640037ff07000000e0000200320030002000d7
:101474002a0037000e0078004bff07000000e00050
:10148400020032004000200024003700e7fe07007d
:101494000000e00002003200600020001f0037005e
:1014a4002e4090000004a00025ff07000000e0008b
:1014b4000200320030002000180037000e007800cf
:1014c40039ff07000000e000020032004000200065
:1014d40012003700ee4090002e009000a4ff070099
:1014e4000000e00002003200700020000b00370012
:1014f4004bff07000000e0000200320080002000e3
:1015040006003700e0fe07000000e00002003200a1
:1015140050002000010037000000eb000080fa00ba
:10152400000006000600fa002047980031479800a2
:1015340042479800ebfe07000000e0000200320082
:10154400100020002f003700a1fe07000000e0007b
:1015540002003200200020002a0037002e409000b4
:10156400f7fe07000000e000020032003000200017
:10157400240037000e0078000bff07000000e00095
:1015840002003200400020001e0037003e40900060
:10159400ebfe07000000e0000200320030002000f3
:1015a400180037000e007800fffe07000000e0007e
:1015b4000200320040002000120037004e4090002c
:1015c400dffe07000000e0000200320030002000cf
:1015d4000c0037000e007800f3fe07000000e00066
:1015e400020032004000200006003700a6fe07007b
:1015f4000000e0000200320050002000010037002b
:101604000000eb000080fa00000006000000fa0071
:101614000621ef00504180000000e90060088800c6
:1016240081088000f0fc2f00008060000040a000d2
:10163400800888001021a90010c1a90094e0a80026
:1016440084e0a90011e1a8000080fa00000006006f
:101654000000fa000a21ef00f0702200e008880080
:1016640091088000f0fc2f00008060009008880042
:101674001221a90012c1a9009500a8008500a900a3
:1016840013e1a8000080fa00000006000000fa0040
:101694001821ef00f0c32900e00888000109800048
:1016a400f0fc2f0000806000000988002021a900c0
:1016b40020c1a9009780a8008780a90021e1a80083
:1016c4000080fa00000006000000fa002621ef0066
:1016d400701a26005009880071098000f0fc2f0060
:1016e400008060000040a000700988002e21a9003d
:1016f4002ec1a9009a00a8008a00a9002fe1a80021
:101704000080fa00000006000400fa00000f7800d0
:10171400110798003421ef001e00e900c009880079
:101724001e00900000407800634060000080fb00d1
:10173400630060004400dd00e2098000f1fc2f003a
:101744008100610001007000e00988003c21a900cb
:101754003cc1a9009a80a8008a80a9003de1a800a4
:101764000080fa00000006000600fa002007980036
:101774000000eb00000f7800ae009000c0cc200009
:10178400808f50000800340010002000000f780003
:101794002e0090000000e00001003d0067004000c2
:1017a4004380de00200798002e0090007400b900ea
:1017b40000007800100798009e0078001e0090003a
:1017c400d1ff070000000000904080000000e0000e
:1017d400fdff32001228ef000080fa00000006002e
:1017e4000600fa00200798002e009000e20f500037
:1017f40008003c000000eb0010079800ae009000c9
:1018040000e224000088b90000007800000f78008e
:10181400120037002e009000fa0f500008003c0020
:101824001000200010079800ae009000409c20009b
:101834000088b90000007800000f78000700370026
:101844002000200010079800ae00900090132000a4
:101854000088b90000007800000f78009e00900016
:101864001e007800a8ff07000000000090408000e0
:101874000000e000fdff32001228ef000080fa00b3
:10188400000006000800fa00000f78001107980015
:1018940022079800330798001e0078008000eb00b0
:1018a400010878001e0090008000eb000108780019
:1018b4002e0090008000eb00010878003e009000ac
:1018c4008000eb00010878000080fa0000000600a8
:1018d4000800fa00000f780011079800220798000a
:1018e400330798001e0078008000eb0001087800a0
:1018f4001e0090008000eb00010878002e0090008c
:101904008000eb00010878003e0090008000eb00ae
:1019140001087800c422a900c462a900c4a2a900d5
:101924000080fa00000006000a00fa001007980080
:10193400210798003207980043079800a0408000d0
:10194400e10f50008f003a00710980000000280068
:10195400008060000000e0008a0032001428ef00dc
:101964001e00900010007800ea0040001e00900065
:10197400010878001e0090009000780040062000c6
:10198400808f50007f003a002016800062006000c3
:1019940000f0a7000000ea000000e9004f00de00ac
:1019a400004078000080fb006100600000004000ff
:1019b400211680000110a10001007000201688008b
:1019c4001e0090008000eb00010878002e009000bb
:1019d400100078008000e8002e00900001087800d4
:1019e4002e00900010007800ea0f50005d003a00cd
:1019f400201680006800600000f0a7000000ea00e4
:101a04000000e9004f00de00004078000080fb0089
:101a1400610060004300dd00211680000130a10058
:101a240001007000201688002e0090008000eb005a
:101a3400010878003e009000100078008000e80063
:101a44003e009000010878002e00900010007800fd
:101a5400800078000e0078004c0007009e40900043
:101a6400c0852000014878003e0090009000780076
:101a7400c0032000808f50002e003a002116800001
:101a8400000220000080600000f0a7000000ea00cf
:101a94000000e9004f00de00004078000080fb00f9
:101aa400610060004500dd00211680000150a100a6
:101ab40001007000201688003e0090008000eb00ba
:101ac400010878004e009000100078008000e800c3
:101ad4004e009000010878003e009000100078004d
:101ae400800078000e007800280007009e407800ef
:101af40090852000014878009e409000a085200039
:101b0400014878004e0090001000780080007800b2
:101b14000e0078001d0007009e40780060852000bc
:101b2400014878009e4090007085200001487800ac
:101b3400140037003e009000100078008000780008
:101b44000e007800110007009e4078009085200068
:101b5400014878009e409000a0852000014878004c
:101b6400080037002e0090001000780080007800f4
:101b74000e007800050007009e409000c0852000fc
:101b8400014878000080fa00000006000600fa0010
:101b94001007980021079800ae009000300620003e
:101ba400808f500001003600ffff3700ae00900028
:101bb400d0cc2c000008b8004308de00004f7800a9
:101bc4001e80fb00c19c2000614f78001e00900025
:101bd4001e4878001e0090000000e80010079800de
:101be4002e019000d0cc2c000010b8004308de0079
:101bf4006a00b9000000780000005100004f78002e
:101c04001e80fb00c19c2000614f78001e009000e4
:101c14001e4878000080fa00000006000a00fa005e
:101c24002007980031079800420798000000eb0055
:101c3400000f7800180037003e019000d0cc2c0033
:101c44000010b8004308de006a00b9000000780004
:101c540000005100204798004e0090001e005000e4
:101c64000000e900ae00900000804000ae4090000b
:101c74008180fb00c29c2000e2c07800014878000b
:101c8400be009000d0cc2c000008b8004308de0051
:101c9400300798001e0fe8004e0090009e00780068
:101ca400808f5000e4ff39000080fa000000060035
:101cb4000e00fa0040079800510798006207980048
:101cc4000000eb00000f7800ce0090001107980090
:101cd400180037001e0090006f0060003007980065
:101ce4003e009000e90f500008003e005e009000a6
:101cf4001e004000be009000814078000143b00007
:101d0400014878001e0fe800070037005e009000cd
:101d14001e004000be009000814078007143b00076
:101d2400014878001e0fe8001e0090004400de0009
:101d3400100798001e0090000000e000e5ff3a0044
:101d44009e00780021079800080037002e009000bc
:101d5400de0090000080400001c3b3000148780019
:101d64002e0090000000e80020079800ae009000cc
:101d74006e009000808f5000f4ff39000080fa005c
:101d8400000006000400fa00100798000000eb00b1
:101d9400000f78001e009000104078000080fb00c7
:101da400000f78001e0078004800dd00000f780066
:101db4001e0090000000e800104078000080fb0046
:101dc4001e0f70001e0078000080fa00000006005c
:101dd4000800fa00300798000000eb001007980094
:101de4000000eb00200798000000eb00000f7800d3
:101df400090037001e00780000004000be0090007b
:101e040000804000100078009e0090000080400098
:101e1400100798001e0fe8001e007800e70f50001e
:101e2400f4ff34001e0090004300de0020079800f9
:101e34002e0090000080fa00000006000a00fa005c
:101e4400ac010700d40107001ffe070000fe0700d5
:101e540052010700090207000cfe070011020700e7
:101e640066014700e40047000e80e8008201780024
:101e740001017800800078000e00780081fe0700e0
:101e840071010700680047008000eb003fff070076
:101e94008e48900060852000014878008e489000ac
:101ea40070852000014878008e48900090852000bd
:101eb400014878008e489000a085200001487800f1
:101ec4008e489000c0852000014878003422ef003d
:101ed40084010700c7010700ccfd07006601470025
:101ee400e40047000e80e8008201780001017800d8
:101ef400800078000e0078008bfe07001040800000
:101f0400e10f500056003a00c0952000b0ff0700d2
:101f140020408800c0962000adff070030408800b4
:101f2400c0972000aaff070040408800c098200006
:101f3400a7ff070050408800c0992000a4ff0700b5
:101f440060408800c09a2000a1ff0700704088000c
:101f5400c09b20009eff0700804088002140800035
:101f6400c08320002004b000420020002bff0700a3
:101f740031408000c08320005005b00032002000b2
:101f840026ff070041408000c08320006006b000a7
:101f94004200200021ff070051408000c083200040
:101fa4008007b000420020001cff07006140800051
:101fb400c0832000a008b0004200200017ff0700e3
:101fc40071408000c0832000c009b000420020009e
:101fd40012ff070081408000c0832000e00ab000a7
:101fe400420020000dff070041408000101c20002b
:101ff400808f50000b003e0051418000c05d2000e6
:10200400808f500004003600504180002003b1004e
:102014005041880011003700c05d20005041880005
:102024000e00370041408000601d2000808f50006a
:102034000a00360051418000b0572100808f5000c3
:1020440004003e00504180002003b000504188004d
:1020540002003700c05d2000504188000228ef00d4
:1020640051418000c0832000200db00042002000b8
:10207400eafe070061418000c0832000400eb000ea
:1020840042002000e5fe070071418000c08320006b
:10209400600fb00042002000e0fe07008141800094
:1020a400c08320008010b00042002000dbfe070047
:1020b40091418000c0832000a011b00042002000a4
:0820c400d6fe070085ff37007e
:020000040000fa
:1020cc00120800000e0000000000000020080000b4
:1020dc000a000000000000003808000002000000a8
:1020ec000200000020000000cc09000010000000dd
:1020fc0002000000303132003334350036373800fe
:10210c003900000000000000000000003c08000046
:10211c0020010000020000002d2044005345200047
:10212c0032303200312d320032202d002d0d0a00bc
:10213c00546965006d706f003a202d002d3a2d000a
:10214c002d3a2d00200d0a002d2049004e464f003f
:10215c00205049004332340048202d002d0d0a0038
:10216c00506f7400656e3a00202020002020200063
:10217c002d2d2d002d0d0a0054656d0070653a0053
:10218c002020200020202000202d2d002d0d0a00c5
:10219c004a6f790073746900636b2000583a200011
:1021ac002d2d2d002d0d0a004a6f790073746900d6
:1021bc00636b2000593a20002d2d2d002d0d0a00a7
:1021cc004a6f790073746900636b20005a3a2000df
:1021dc002d2d2d002d0d0a004d696e0069204a0031
:1021ec006f792000583a20002d2d2d002d0d0a005e
:1021fc004d696e0069204a006f792000593a200021
:10220c002d2d2d002d0d0a002d2d2000494e4600a0
:10221c004f20420052415a004f202d002d0d0a0034
:10222c0053657200766f2000313a20002020200088
:10223c002d2d2d002d0d0a0053657200766f200098
:10224c00323a2000202020002d2d2d002d0d0a00cb
:10225c0053657200766f2000333a20002020200056
:10226c002d2d2d002d0d0a0053657200766f200068
:10227c00343a2000202020002d2d2d002d0d0a0099
:10228c0053657200766f2000353a20002020200024
:10229c002d2d2d002d0d0a005c0900007000000092
:1022ac000000000000080000120000000000000008
:1022bc003a08000002000000000000003408000092
:1022cc000400000002000000dc057c00150000008a
:1022dc002a0800000a0000000000000000000000b6
:020000040000fa
:1022ec000200fa00004f7800d6a2a900cbe2a900a8
:1022fc00e116800000f02f0000806000e0168800de
:10230c009e00fb00e016800001007000e0168800c3
:10231c00d682a800000000000000000000000000b1
:10232c000000000000000000d682a900d6a2a80080
:10233c000080fa00000006000200fa00004f78004e
:10234c00d6a2a900cbe2a800e116800000f02f0075
:10235c0000806000e01688009e00fb00e016800004
:10236c0001007000e0168800d682a8000000000072
:10237c000000000000000000000000000000000051
:10238c00d682a900cbe2a900d6a2a8000080fa0050
:10239c00000006000000fa00f00020000efd07000f
:1023ac00e116800000f02f0000806000e01688002d
:1023bc00d6a2a900cbe2a900d682a900c116800042
:1023cc0000f02f0000806000c0168800d2a2a90087
:1023dc00c7e2a900d282a90080c3b300c0ff0700e6
:1023ec0050002000fcfc070080c3b300bcff0700ba
:1023fc0040062000dafc070080c3b300b8ff0700da
:10240c0080022000d6fc070080c3b300b4ff070095
:10241c0080022000d2fc0700c0c0b300b0ff070050
:10242c0080022000cefc070060c0b300acff0700a8
:10243c0080022000cafc07000080fa0000000600a1
:10244c000000fa002023ef0001198000000e20008c
:10245c0001007000001988002223ef002423ef00f4
:10246c002119800000f02100010070002019880063
:10247c0030c0b30024e3b7003223ef002623ef0073
:10248c002823ef004119800000fe2f00008060001f
:10249c00401988002e23ef003023ef000080eb0062
:1024ac00501988000080eb00601988002ca3a9004b
:1024bc002c83a9002c03a9002c23a9002c43a900d0
:1024cc002d03a9002d23a90085a0a90095a0a80083
:1024dc0021e3a8000080fa00000006000000fa00ca
:1024ec002023a8000080fa00000006000000fa007b
:1024fc0020012000303a8800213a8000f0f32f00b0
:10250c0000806000203a8800213a800000fe2f00f5
:10251c0000806000203a880040a7a900320020000b
:10252c0080072000a1092000337420008049780026
:10253c008149780082497800120020006004200054
:10254c0071052000237420008049780081497800af
:10255c008249780000000000113a8000000027003a
:10256c008080600000002300808f5000faff3a004a
:10257c0000000000113a8000000220000080600082
:10258c000000e000fbff32000080fa0000000600b3
:10259c000000fa00c00a2000c01188003022ef00b1
:1025ac003062a8008111800090ff2f000080600035
:1025bc000020a000801188003222ef0087c0a90003
:1025cc0087e0a90097c0a80097e0a8009c40a9004c
:1025dc003222a90031e2a8003342a80030022000c8
:1025ec005ffc07000080fa00000006000000fa0003
:1025fc00d202a900d222a900d242a900d262a9001b
:10260c00c762a900d602a900d622a900d642a90009
:10261c00d662a900cb62a90020cb200050418800d3
:10262c0020cb20006041880020cb20007041880026
:10263c0020cb20008041880020cb200090418800d6
:10264c000080fa00000006000000fa0000f02f00e5
:10265c000016880000000000000000002116800019
:10266c0000f02f0000806000201688000080fa0027
:10267c00000006000000fa000080eb0050198800f2
:10268c00d2c2a800d2e2a800d3a2a800c0e2a8003f
:10269c00c662a8000080fa00000006000000fa00e4
:1026ac0061e0a8006200a80062e0a80060a0a80099
:1026bc009660a8008660a9000080fa000000060061
:020000040000fa
:0200000401f009
:04000c00fbff0000f6
:020000040000fa
:0200000401f009
:040010007dff000070
:020000040000fa
:0200000401f009
:040014007fff00006a
:00000001FF
