:020000040000fa
:080000000002040000000000f2
:020000040000fa
:040008004c070000a1
:020000040000fa
:04000c004c0700009d
:020000040000fa
:040010004c07000099
:020000040000fa
:040014004c07000095
:020000040000fa
:040018004c07000091
:020000040000fa
:04001c004c0700008d
:020000040000fa
:040020004c07000089
:020000040000fa
:040024004c07000085
:020000040000fa
:040028004c07000081
:020000040000fa
:04002c004c0700007d
:020000040000fa
:040030004c07000079
:020000040000fa
:040034004c07000075
:020000040000fa
:040038004c07000071
:020000040000fa
:04003c004c0700006d
:020000040000fa
:040040004c07000069
:020000040000fa
:04004400c8020000ee
:020000040000fa
:040048006003000051
:020000040000fa
:04004c004c0700005d
:020000040000fa
:040050004c07000059
:020000040000fa
:040054004c07000055
:020000040000fa
:040058004c07000051
:020000040000fa
:04005c000a06000090
:020000040000fa
:040060004c07000049
:020000040000fa
:040064004c07000045
:020000040000fa
:040068004c07000041
:020000040000fa
:04006c004c0700003d
:020000040000fa
:040070004c07000039
:020000040000fa
:04007400060700007b
:020000040000fa
:040078004c07000031
:020000040000fa
:04007c004c0700002d
:020000040000fa
:040080004c07000029
:020000040000fa
:040084004c07000025
:020000040000fa
:040088004c07000021
:020000040000fa
:04008c004c0700001d
:020000040000fa
:040090004c07000019
:020000040000fa
:040094004c07000015
:020000040000fa
:040098007e030000e3
:020000040000fa
:04009c004c0700000d
:020000040000fa
:0400a0003804000020
:020000040000fa
:0400a40094050000bf
:020000040000fa
:0400a8004c07000001
:020000040000fa
:0400ac004c070000fd
:020000040000fa
:0400b0004c070000f9
:020000040000fa
:0400b4004c070000f5
:020000040000fa
:0400b8004c070000f1
:020000040000fa
:0400bc004c070000ed
:020000040000fa
:0400c0004c070000e9
:020000040000fa
:0400c4004c070000e5
:020000040000fa
:0400c8004c070000e1
:020000040000fa
:0400cc004c070000dd
:020000040000fa
:0400d0004c070000d9
:020000040000fa
:0400d4004c070000d5
:020000040000fa
:0400d8004c070000d1
:020000040000fa
:0400dc004c070000cd
:020000040000fa
:0400e0004c070000c9
:020000040000fa
:0400e4004c070000c5
:020000040000fa
:0400e80016040000fa
:020000040000fa
:0400ec004c070000bd
:020000040000fa
:0400f0004c070000b9
:020000040000fa
:0400f4004c070000b5
:020000040000fa
:0400f80026040000da
:020000040000fa
:0400fc004c070000ad
:020000040000fa
:040100004c070000a8
:020000040000fa
:040104004c070000a4
:020000040000fa
:040108004c070000a0
:020000040000fa
:04010c004c0700009c
:020000040000fa
:040110004c07000098
:020000040000fa
:040114004c07000094
:020000040000fa
:040118004c07000090
:020000040000fa
:04011c004c0700008c
:020000040000fa
:040120004c07000088
:020000040000fa
:040124004c07000084
:020000040000fa
:040128004c07000080
:020000040000fa
:04012c004c0700007c
:020000040000fa
:040130004c07000078
:020000040000fa
:040134004c07000074
:020000040000fa
:040138004c07000070
:020000040000fa
:04013c004c0700006c
:020000040000fa
:040140004c07000068
:020000040000fa
:040144004c07000064
:020000040000fa
:040208004c0700009f
:020000040000fa
:04020c004c0700009b
:020000040000fa
:040210004c07000097
:020000040000fa
:040214004c07000093
:020000040000fa
:040218004c0700008f
:020000040000fa
:04021c004c0700008b
:020000040000fa
:040220004c07000087
:020000040000fa
:040224004c07000083
:020000040000fa
:040228004c0700007f
:020000040000fa
:04022c004c0700007b
:020000040000fa
:040230004c07000077
:020000040000fa
:040234004c07000073
:020000040000fa
:040238004c0700006f
:020000040000fa
:04023c004c0700006b
:020000040000fa
:040240004c07000067
:020000040000fa
:04024400c8020000ec
:020000040000fa
:04024800600300004f
:020000040000fa
:04024c004c0700005b
:020000040000fa
:040250004c07000057
:020000040000fa
:040254004c07000053
:020000040000fa
:040258004c0700004f
:020000040000fa
:04025c000a0600008e
:020000040000fa
:040260004c07000047
:020000040000fa
:040264004c07000043
:020000040000fa
:040268004c0700003f
:020000040000fa
:04026c004c0700003b
:020000040000fa
:040270004c07000037
:020000040000fa
:040274000607000079
:020000040000fa
:040278004c0700002f
:020000040000fa
:04027c004c0700002b
:020000040000fa
:040280004c07000027
:020000040000fa
:040284004c07000023
:020000040000fa
:040288004c0700001f
:020000040000fa
:04028c004c0700001b
:020000040000fa
:040290004c07000017
:020000040000fa
:040294004c07000013
:020000040000fa
:040298007e030000e1
:020000040000fa
:04029c004c0700000b
:020000040000fa
:0402a000380400001e
:020000040000fa
:0402a40094050000bd
:020000040000fa
:0402a8004c070000ff
:020000040000fa
:0402ac004c070000fb
:020000040000fa
:0402b0004c070000f7
:020000040000fa
:0402b4004c070000f3
:020000040000fa
:0402b8004c070000ef
:020000040000fa
:0402bc004c070000eb
:020000040000fa
:0402c0004c070000e7
:020000040000fa
:0402c4004c070000e3
:020000040000fa
:0402c8004c070000df
:020000040000fa
:0402cc004c070000db
:020000040000fa
:0402d0004c070000d7
:020000040000fa
:0402d4004c070000d3
:020000040000fa
:0402d8004c070000cf
:020000040000fa
:0402dc004c070000cb
:020000040000fa
:0402e0004c070000c7
:020000040000fa
:0402e4004c070000c3
:020000040000fa
:0402e80016040000f8
:020000040000fa
:0402ec004c070000bb
:020000040000fa
:0402f0004c070000b7
:020000040000fa
:0402f4004c070000b3
:020000040000fa
:0402f80026040000d8
:020000040000fa
:0402fc004c070000ab
:020000040000fa
:040300004c070000a6
:020000040000fa
:040304004c070000a2
:020000040000fa
:040308004c0700009e
:020000040000fa
:04030c004c0700009a
:020000040000fa
:040310004c07000096
:020000040000fa
:040314004c07000092
:020000040000fa
:040318004c0700008e
:020000040000fa
:04031c004c0700008a
:020000040000fa
:040320004c07000086
:020000040000fa
:040324004c07000082
:020000040000fa
:040328004c0700007e
:020000040000fa
:04032c004c0700007a
:020000040000fa
:040330004c07000076
:020000040000fa
:040334004c07000072
:020000040000fa
:040338004c0700006e
:020000040000fa
:04033c004c0700006a
:020000040000fa
:040340004c07000066
:020000040000fa
:040344004c07000062
:020000040000fa
:10040000af9c20000e7f24000e0188000000000039
:10041000000020000000e000020032000001200087
:1004200020028800140007009d0207000000e00081
:1004300003003a00c0e9200001002000020037005c
:100440000000200001002000810f70000100320038
:1004500014000700000020000000e000020032004d
:100460000000020000000000a60f020000000000d3
:100470000040da000000fe004440a90040002000d7
:100480000000e0000300320000002000a00188000e
:100490004440a800000006008a1f78008b1f7800e7
:1004a0000000060091018800800478000000eb0045
:1004b0001a003700e284440032a0b4009905ba0063
:1004c000e284440032a0b4009906ba00e2844400f9
:1004d00032a0b4000006eb00476fde00fd07b2005b
:1004e000636ce10003003a00ebff07000000eb0043
:1004f0000a003700606ce10004003a00005deb0088
:100500008b05e900fdff3e00040037006168e10053
:10051000010032000086eb000b00070019c7ba008b
:100520001905ba000e04e00003003a000a00e000da
:10053000e0ff3a0000000600fe07b2009e018800be
:100540008a047800f5ff3700395dba008b05e900b1
:100550000c003200295dba008b05e900080032006a
:100560000c00e00003003a00e284440032a0b40032
:10057000f5ff370019ddba008b05e900faff3a00f4
:100580008904e800e184440032a0b40000000600c1
:10059000809fbe000000fa0050408000e20f500033
:1005a00021003200e20f500005003e000000e00094
:1005b00008003200e10f50000f0032003c0037000d
:1005c000e30f500024003200e40f50002e003200f0
:1005d00037003700d602a800c040800060088800bd
:1005e0006008800040408800504080000000e80023
:1005f000504088002e003700d602a900d622a8005d
:10060000d040800060088800414080006008800081
:100610000080400040408800504080000000e8001a
:100620005040880022003700d622a900d642a800f8
:10063000e040800060088800414080006008800041
:100640000080400040408800504080000000e800ea
:100650005040880016003700d642a900d662a80094
:10066000f040800060088800414080006008800001
:100670000080400040408800504080000000e800ba
:10068000504088000a003700d662a9006008800048
:100690004040880040408000f1342c000080500031
:1006a000600888000828ef000a28ef00000000001a
:1006b00084e0a9000080fa004f00be000040060060
:1006c0003600f800809fbe00829fbe00849fbe005f
:1006d000869fbe000000fa00160707008500a900eb
:1006e0000080fa004f03be004f02be004f01be0063
:1006f0004f00be003600f900004006003600f8004a
:10070000809fbe00829fbe00849fbe00869fbe0069
:100710000000fa0020408000e10f50000d00320080
:10072000e10f500005003900e20f50001c003200bc
:10073000e30f5000200032003400370000c8b3003f
:100740007d060700204080000000e800204088006f
:100750002e00370060408000324080007200b900f7
:100760000000780002004000a18220006140780073
:1007700087060700304080000000e8003040880015
:1007800030408000f00f50001d003a000628ef00b6
:10079000204080000000e800204088001b00370057
:1007a00000ccb30064060700204080000000e80091
:1007b0002040880015003700604080000000e800fd
:1007c000324080007200b900000078000200400052
:1007d000a1822000614078006d0607003040800053
:1007e0000000e8003040880030408000f00f5000ea
:1007f00005003a000628ef000428ef000300370048
:100800000000000001003700000000008780a90000
:100810000080fa004f03be004f02be004f01be0031
:100820004f00be003600f90000400600801f78002f
:100830000000fa0010002000104088008a00a90083
:100840000080fa004f00780000400600801f78000a
:100850000000fa0010002000004088003de1a900df
:100860008a80a9000080fa004f007800004006004e
:10087000809fbe00829fbe000000fa00b011800081
:100880000040780028e8b70028c8bf000080fb00bf
:100890006101b900f0f92f00f1ff2f0002004000c4
:1008a000838048006201200003002000820f500076
:1008b000838f580090003e00006001004000370028
:1008c0008f0037008e0037004a0037008c00370059
:1008d0006f003700610037007a0037000e003700e4
:1008e0008700370086003700850037008400370016
:1008f000830037000a0037001000370080003700ff
:100900007f00370021003700470037007c003700a8
:100910007b003700100037002fe1a9007d00370071
:100920007109800000002800008060000000e000e5
:10093000750032002fe1a9007600370071098000b0
:1009400000002800008060000000e00070003a0015
:100950002fe1a8006f003700c04080004106200052
:100960008080400030418000808f500004003100c2
:10097000c04080004006b000c040880065003700dd
:1009800030418000c040880062003700c0408000d5
:10099000c1f92f008080400020418000808f5000ee
:1009a00004003600c04080004006b100c04088000e
:1009b0005800370020418000c040880055003700b3
:1009c000d0408000410620008080400030418000ff
:1009d000808f500004003100d04080004006b000fd
:1009e000d04088004b00370030418000d040880064
:1009f00048003700d0408000c1f92f0080804000bf
:100a000020418000808f500004003600d0408000dc
:100a10004006b100d04088003e00370020418000f1
:100a2000d04088003b003700e040800041062000b5
:100a30008080400030418000808f500004003100f1
:100a4000e04080004006b000e04088003100370000
:100a500030418000e04088002e003700e0408000f8
:100a6000c1f92f008080400020418000808f50001d
:100a700004003600e04080004006b100e0408800fd
:100a80002400370020418000e0408800210037002a
:100a9000f04080004106200080804000304180000e
:100aa000808f500004003100f04080004006b0000c
:100ab000f04088001700370030418000f040880087
:100ac00014003700f0408000c1f92f008080400002
:100ad00020418000808f500004003600c04080001c
:100ae0004006b100c04088000a0037002041800065
:100af000f0408800070037000000000005003700c4
:100b00000000000003003700000000000100370073
:100b10000000000087c0a9000080fa004f01be005d
:100b20004f00be0000400600809fbe00821f78007c
:100b30000000fa00704080000000e00010003a0061
:100b40008040800021752800614078000000fb0093
:100b5000a0118800804080000000e80080408800ec
:100b600080408000e30f500025003a001028ef007d
:100b7000704080000000e8007040880020003700ce
:100b800090408000a24080007200b9000000780010
:100b900002004000a1822000614078000080fb003c
:100ba000a0118800a04080000000e800a04088005c
:100bb00090408000ef0f500008003200a0408000fd
:100bc000f20f500005003a00904080000000e8005d
:100bd000904088001428ef00090037009040800002
:100be000ef0f500006003a00a0408000f20f5000c6
:100bf00003003a000e28ef001428ef001228ef003f
:100c000087e0a9000080fa004f0178004f00be0085
:100c100000400600809fbe00821f78000000fa009e
:100c2000104180000000e00073003a00401980008d
:100c3000004078007f4060000080fb00e40f50001f
:100c400034003200e40f500007003c00e10f500078
:100c500018003200e20f5000220032000000e000d5
:100c60000800320064003700e80f500041003200f5
:100c7000e90f50004b003200e50f50003100320008
:100c80005d00370000418000011880000001400035
:100c9000a096200000004100010878004119800062
:100ca00000fe2f00008060000000a00040198800b6
:100cb0005100370000418000011880000001400011
:100cc000a097200000004100010878004119800031
:100cd00000fe2f00008060000010a0004019880076
:100ce00045003700004180000118800000014000ed
:100cf000a098200000004100010878004119800000
:100d000000fe2f00008060000020a0004019880035
:100d100039003700004180000118800000014000c8
:100d2000a0952000000041000108780041198000d2
:100d300000fe2f00008060005000b30040198800c2
:100d40002d003700004180000118800000014000a4
:100d5000a0942000000041000108780041198000a3
:100d600000fe2f00008060000030a00040198800c5
:100d70002100370000418000011880000001400080
:100d8000a09920000000410001087800411980006e
:100d900000fe2f00008060009000b3004019880022
:100da000150037000041800001188000000140005c
:100db000a09a200000004100010878000041800056
:100dc000e70f500004003200004180000000e800fe
:100dd00000418800030037002028ef0010002000a9
:100de000104188004119800000fe2f000080600043
:100df000401988000000000085a0a9000080fa00ca
:100e00004f0178004f00be0000400600809fbe00ea
:100e10000000fa00a116800000042000008060009d
:100e20000000e00006003a0060408000ee0f500035
:100e300003003200604080000080e80060408800cd
:100e4000a116800000082000008060000000e00083
:100e500006003a00604080000000e000030032001d
:100e6000604080000080e9006040880040168000fb
:100e7000680060000000e00001003a00000000008f
:100e800000000000000000008660a9000080fa0059
:100e90004f00be00004006000040da000000fe00e7
:040ea0000000050049
:020000040000fa
:080ea4001b5b00004800000088
:020000040000fa
:100eac000000fa00500c20002010880000202100c7
:100ebc003010880007e2a8000080fa00000006004d
:100ecc000200fa000602a8000000eb00000f7800f8
:100edc00010037001e0fe800301080006100600038
:100eec000000e00004003200703e20009e007800fc
:100efc00808f5000f7ff3600703e20009e00780077
:100f0c00808f5000020036001000200001003700d6
:100f1c000000eb000080fa00000006000200fa005e
:100f2c000622a8000000eb00000f7800010037003b
:100f3c001e0fe80030108000620060000000e0002e
:100f4c0004003200703e20009e007800808f50001c
:100f5c00f7ff3600703e20009e007800808f500016
:100f6c000200360010002000010037000000eb00ea
:100f7c000080fa00000006000200fa000642a800f9
:100f8c000000eb00000f7800010037001e0fe80096
:100f9c0030108000640060000000e00004003200ab
:100fac00703e20009e007800808f5000f7ff3600c6
:100fbc00703e20009e007800808f500002003600aa
:100fcc0010002000010037000000eb000080fa0048
:100fdc00000006000200fa000000eb00000f780091
:100fec00010037001e0fe8004110800000002400b3
:100ffc00008060000000e00004003200703e200021
:10100c009e007800808f5000f6ff3600703e200066
:10101c009e007800808f50000200360010002000e7
:10102c00010037000000eb000080fa000000060011
:10103c000400fa00204798002e4090000080fb002e
:10104c00101088000000eb00000f78000100370042
:10105c001e0fe80040108000610060000000e000fe
:10106c0004003200703e20009e007800808f5000fb
:10107c00f7ff3600703e20009e007800808f5000f5
:10108c000200360010002000010037000000eb00c9
:10109c000080fa00000006000400fa001007980017
:1010ac000000eb00000f7800010037001e0fe80075
:1010bc004110800000002400008060000000e0006f
:1010cc0004003200703e20009e007800808f50009b
:1010dc00f6ff3600703e20009e007800808f500096
:1010ec00020036001000200007003700401080007e
:1010fc004f00de00004078008080fb001e00900056
:10110c00010878000000eb000080fa0000000600e7
:10111c000200fa0006a2a8000682a8000000eb005c
:10112c00000f7800010037001e0fe800301080001f
:10113c00700060000000e00004003200703e2000ef
:10114c009e007800808f5000f7ff3600703e200024
:10115c009e007800808f50000200360010002000a6
:10116c00010037000000eb000080fa0000000600d0
:10117c000200fa0006a2a9000682a8000000eb00fb
:10118c00000f7800010037001e0fe80030108000bf
:10119c00700060000000e00004003200703e20008f
:1011ac009e007800808f5000f7ff3600703e2000c4
:1011bc009e007800808f5000020036001000200046
:1011cc00010037000000eb000080fa000000060070
:1011dc000400fa00100798000662a8000000eb005b
:1011ec00000f7800010037001e0fe800401080004f
:1011fc006200600000f0a7000000ea000000e900b7
:10120c004f00de008040780010c0b300723e20001a
:10121c009e017800828f5100010034000040eb00e9
:10122c0000c060000004e000efff3a00703e2000b8
:10123c009e007800808f50000200340010002000c7
:10124c000500370000108000804078001e009000e0
:10125c00014878000000eb000080fa000000060056
:10126c000400fa00000f7800214798000f003700a7
:10127c001e007800d6ff07000000e00002003200dc
:10128c0010002000140037001e0fe8002e409000c4
:10129c000004e00005003200b5ff07000000e0008c
:1012ac0002003200200020000b0037002e4090007e
:1012bc000080fb000000ea004f00de0000407800d8
:1012cc00ae4090008140e900214798000004e00006
:1012dc00e7ff3a000000eb000080fa000000060077
:1012ec000800fa0020479800314798002207980020
:1012fc006347980037ff07000000e000020032004f
:10130c001000200041003700edfe07000000e00057
:10131c0002003200200020003c0037002e409000dc
:10132c0043ff07000000e000020032003000200004
:10133c00360037000e00780057ff07000000e00071
:10134c000200320040002000300037003e40900088
:10135c0037ff07000000e0000200320030002000e0
:10136c002a0037000e0078004bff07000000e00059
:10137c00020032004000200024003700e7fe070086
:10138c000000e00002003200600020001f00370067
:10139c002e4090000004a00025ff07000000e00094
:1013ac000200320030002000180037000e007800d8
:1013bc0039ff07000000e00002003200400020006e
:1013cc0012003700ee4090002e009000a4ff0700a2
:1013dc000000e00002003200700020000b0037001b
:1013ec004bff07000000e0000200320080002000ec
:1013fc0006003700e0fe07000000e00002003200ab
:10140c0050002000010037000000eb000080fa00c3
:10141c00000006000600fa002047980031479800ab
:10142c0042479800ebfe07000000e000020032008b
:10143c00100020002f003700a1fe07000000e00084
:10144c0002003200200020002a0037002e409000bd
:10145c00f7fe07000000e000020032003000200020
:10146c00240037000e0078000bff07000000e0009e
:10147c0002003200400020001e0037003e40900069
:10148c00ebfe07000000e0000200320030002000fc
:10149c00180037000e007800fffe07000000e00087
:1014ac000200320040002000120037004e40900035
:1014bc00dffe07000000e0000200320030002000d8
:1014cc000c0037000e007800f3fe07000000e0006f
:1014dc00020032004000200006003700a6fe070084
:1014ec000000e00002003200500020000100370034
:1014fc000000eb000080fa00000006000000fa007b
:10150c000621ef00c04080000000e9006008880060
:10151c0081088000f0fc2f00008060000040a000db
:10152c00800888001021a90010c1a90094e0a8002f
:10153c0084e0a90011e1a8000080fa000000060078
:10154c000000fa001821ef00f0702200e00888007b
:10155c0091088000f0fc2f0000806000900888004b
:10156c001221a90012c1a9009500a8008500a900ac
:10157c0013e1a8000080fa00000006000000fa0049
:10158c001821ef00f0c32900e00888000109800051
:10159c00f0fc2f0000806000000988002021a900c9
:1015ac0020c1a9009780a8008780a90021e1a8008c
:1015bc000080fa00000006000000fa002621ef006f
:1015cc00701a26005009880071098000f0fc2f0069
:1015dc00008060000040a000700988002e21a90046
:1015ec002ec1a9009a00a8008a00a9002fe1a8002a
:1015fc000080fa00000006000400fa00000f7800da
:10160c00110798003421ef001e00e900c009880082
:10161c001e00900000407800634060000080fb00da
:10162c00630060004400dd00e2098000f1fc2f0043
:10163c008100610001007000e00988003c21a900d4
:10164c003cc1a9009a80a8008a80a9003de1a800ad
:10165c000080fa00000006000600fa00200798003f
:10166c000000eb00000f7800ae009000c0cc200012
:10167c00808f50000800340010002000000f78000c
:10168c002e0090000000e00001003d0067004000cb
:10169c004380de00200798002e0090007400b900f3
:1016ac0000007800100798009e0078001e00900043
:1016bc00d1ff070000000000004080000000e000a7
:1016cc00fdff32000028ef000080fa000000060049
:1016dc000600fa00200798002e009000e20f500040
:1016ec0008003c000000eb0010079800ae009000d2
:1016fc0000e224000088b90000007800000f780098
:10170c00120037002e009000fa0f500008003c0029
:10171c001000200010079800ae009000409c2000a4
:10172c000088b90000007800000f7800070037002f
:10173c002000200010079800ae00900090132000ad
:10174c000088b90000007800000f78009e0090001f
:10175c001e007800a8ff0700000000000040800079
:10176c000000e000fdff32000028ef000080fa00ce
:10177c00000006000800fa00000f7800110798001e
:10178c0022079800330798001e0078008000eb00b9
:10179c00010878001e0090008000eb000108780022
:1017ac002e0090008000eb00010878003e009000b5
:1017bc008000eb00010878000080fa0000000600b1
:1017cc000800fa00000f7800110798002207980013
:1017dc00330798001e0078008000eb0001087800a9
:1017ec001e0090008000eb00010878002e00900095
:1017fc008000eb00010878003e0090008000eb00b8
:10180c0001087800c422a900c462a900c4a2a900de
:10181c000080fa00000006000a00fa001007980089
:10182c002107980032079800430798001040800069
:10183c00e10f50008f003a00710980000000280071
:10184c00008060000000e0008a0032000228ef00f7
:10185c001e00900010007800ea0040001e0090006e
:10186c00010878001e0090009000780040062000cf
:10187c00808f50007f003a002016800062006000cc
:10188c0000f0a7000000ea000000e9004f00de00b5
:10189c00004078000080fb00610060000000400008
:1018ac00211680000110a100010070002016880094
:1018bc001e0090008000eb00010878002e009000c4
:1018cc00100078008000e8002e00900001087800dd
:1018dc002e00900010007800ea0f50005d003a00d6
:1018ec00201680006800600000f0a7000000ea00ed
:1018fc000000e9004f00de00004078000080fb0093
:10190c00610060004300dd00211680000130a10061
:10191c0001007000201688002e0090008000eb0063
:10192c00010878003e009000100078008000e8006c
:10193c003e009000010878002e0090001000780006
:10194c00800078000e0078004c0007009e4090004c
:10195c00a0842000014878003e00900090007800a0
:10196c00c0032000808f50002e003a00211680000a
:10197c00000220000080600000f0a7000000ea00d8
:10198c000000e9004f00de00004078000080fb0002
:10199c00610060004500dd00211680000150a100af
:1019ac0001007000201688003e0090008000eb00c3
:1019bc00010878004e009000100078008000e800cc
:1019cc004e009000010878003e0090001000780056
:1019dc00800078000e007800280007009e407800f8
:1019ec0070842000014878009e4090008084200084
:1019fc00014878004e0090001000780080007800bc
:101a0c000e0078001d0007009e40780040842000e6
:101a1c00014878009e4090005084200001487800d6
:101a2c00140037003e009000100078008000780011
:101a3c000e007800110007009e4078007084200092
:101a4c00014878009e409000808420000148780076
:101a5c00080037002e0090001000780080007800fd
:101a6c000e007800050007009e409000a084200026
:101a7c00014878000080fa00000006000600fa0019
:101a8c001007980021079800ae0090003006200047
:101a9c00808f500001003600ffff3700ae00900031
:101aac00d0cc2c000008b8004308de00004f7800b2
:101abc001e80fb00a19b2000614f78001e0090004f
:101acc001e4878001e0090000000e80010079800e7
:101adc002e019000d0cc2c000010b8004308de0082
:101aec006a00b9000000780000005100004f780037
:101afc001e80fb00a19b2000614f78001e0090000f
:101b0c001e4878000080fa00000006000a00fa0067
:101b1c002007980031079800420798000000eb005e
:101b2c00000f7800180037003e019000d0cc2c003c
:101b3c000010b8004308de006a00b900000078000d
:101b4c0000005100204798004e0090001e005000ed
:101b5c000000e900ae00900000804000ae40900014
:101b6c008180fb00a29b2000e2c078000148780035
:101b7c00be009000d0cc2c000008b8004308de005a
:101b8c00300798001e0fe8004e0090009e00780071
:101b9c00808f5000e4ff39000080fa00000006003e
:101bac000e00fa0040079800510798006207980051
:101bbc000000eb00000f7800ce0090001107980099
:101bcc00180037001e0090006f006000300798006e
:101bdc003e009000e90f500008003e005e009000af
:101bec001e004000be009000814078000143b00010
:101bfc00014878001e0fe800070037005e009000d7
:101c0c001e004000be009000814078007143b0007f
:101c1c00014878001e0fe8001e0090004400de0012
:101c2c00100798001e0090000000e000e5ff3a004d
:101c3c009e00780021079800080037002e009000c5
:101c4c00de0090000080400001c3b3000148780022
:101c5c002e0090000000e80020079800ae009000d5
:101c6c006e009000808f5000f4ff39000080fa0065
:101c7c00000006000400fa00100798000000eb00ba
:101c8c00000f78001e009000104078000080fb00d0
:101c9c00000f78001e0078004800dd00000f78006f
:101cac001e0090000000e800104078000080fb004f
:101cbc001e0f70001e0078000080fa000000060065
:101ccc000800fa00300798000000eb00100798009d
:101cdc000000eb00200798000000eb00000f7800dc
:101cec00090037001e00780000004000be00900084
:101cfc0000804000100078009e00900000804000a2
:101d0c00100798001e0fe8001e007800e70f500027
:101d1c00f4ff34001e0090004300de002007980002
:0c1d2c002e0090000080fa00000006006d
:020000040000fa
:101d3800000800000e000000000000000e0800006f
:101d48000a0000000000000028080000020000004f
:101d58000200000020000000ba0900001000000086
:101d68000200000030313200333435003637380095
:101d78003900000000000000000000002a080000f0
:101d880020010000020000002d20440053452000df
:101d980032303200312d320032202d002d0d0a0054
:101da800546965006d706f003a202d002d3a2d00a2
:101db8002d3a2d00200d0a002d2049004e464f00d7
:101dc800205049004332340048202d002d0d0a00d0
:101dd800506f7400656e3a002020200020202000fb
:101de8002d2d2d002d0d0a0054656d0070653a00eb
:101df8002020200020202000202d2d002d0d0a005d
:101e08004a6f790073746900636b2000583a2000a8
:101e18002d2d2d002d0d0a004a6f7900737469006d
:101e2800636b2000593a20002d2d2d002d0d0a003e
:101e38004a6f790073746900636b20005a3a200076
:101e48002d2d2d002d0d0a004d696e0069204a00c8
:101e58006f792000583a20002d2d2d002d0d0a00f5
:101e68004d696e0069204a006f792000593a2000b8
:101e78002d2d2d002d0d0a002d2d2000494e460038
:101e88004f20420052415a004f202d002d0d0a00cc
:101e980053657200766f2000313a20002020200020
:101ea8002d2d2d002d0d0a0053657200766f200030
:101eb800323a2000202020002d2d2d002d0d0a0063
:101ec80053657200766f2000333a200020202000ee
:101ed8002d2d2d002d0d0a0053657200766f200000
:101ee800343a2000202020002d2d2d002d0d0a0031
:101ef80053657200766f2000353a200020202000bc
:101f08002d2d2d002d0d0a004a090000700000003b
:101f1800000000002008000004000000000000008d
:101f2800240800000400000002000000dc057c001a
:101f3800150000001808000008000000000000005c
:041f48000000000095
:020000040000fa
:101f4c001800fa00fc000700240107009afd0700a6
:101f5c007bfd0700a20007004201070087fd070078
:101f6c005d010700f401470072014700f0004700d3
:101f7c006e004700fffd0700c40007007600470015
:101f8c008000eb00bdfe0700ee5090004084200066
:101f9c0001487800ee5090005084200001487800f1
:101fac00ee5090007084200001487800ee509000b4
:101fbc008084200001487800ee509000a08420001e
:101fcc00014878003422ef00d70007002f010700ea
:101fdc004afd0700f401470072014700f00047007a
:101fec006e0047000cfe070010418000e10f50000e
:101ffc0039003a00a094200031ff0700000f780050
:10200c00a09520002eff070010079800a096200036
:10201c002bff070020079800a097200028ff07003f
:10202c0030079800a098200025ff07004007980073
:10203c00a099200022ff070050079800a09a2000ca
:10204c001fff070060079800a08220002004b0004a
:10205c00420020009e007800acfe0700a082200009
:10206c005005b000320020009e009000a7fe070033
:10207c00a08220006006b00042002000ae0090005c
:10208c00a2fe0700a08220008007b00042002000c2
:10209c00be0090009dfe0700a0822000a008b000aa
:1020ac0042002000ce00900098fe0700a082200085
:1020bc00c009b00042002000de00900093fe070033
:1020cc00a0822000e00ab00042002000ee00900048
:1020dc008efe07002228ef00c1408000a082200065
:1020ec00200db0004200200088fe0700d140800087
:1020fc00a0822000400eb0004200200083fe0700aa
:10210c00e1408000a0822000600fb000420020005f
:10211c007efe0700f1408000a08220008010b000fd
:10212c004200200079fe0700aaff37000200fa00e7
:10213c00004f7800d6a2a900cbe2a900e1168000de
:10214c0000f02f0000806000e01688009e00fb006d
:10215c00e016800001007000e0168800d682a8000e
:10216c000000000000000000000000000000000063
:10217c0000000000d682a900d6a2a8000080fa00b8
:10218c00000006000200fa00004f7800d6a2a90059
:10219c00cbe2a800e116800000f02f000080600068
:1021ac00e01688009e00fb00e01680000100700025
:1021bc00e0168800d682a800000000000000000095
:1021cc00000000000000000000000000d682a90002
:1021dc00cbe2a900d6a2a8000080fa0000000600fd
:1021ec000000fa00f000200039fd0700e116800025
:1021fc0000f02f0000806000e0168800d6a2a90035
:10220c00cbe2a900d682a900c116800000f02f00f5
:10221c0000806000c0168800d2a2a900c7e2a90005
:10222c00d282a90080c3b300c0ff07005000200079
:10223c0027fd070080c3b300bcff07004006200049
:10224c0005fd070080c3b300b8ff07008002200023
:10225c0001fd070080c3b300b4ff0700800220001b
:10226c00fdfc0700c0c0b300b0ff070080022000d7
:10227c00f9fc070060c0b300acff0700800220002f
:10228c00f5fc07000080fa00000006000000fa00d0
:10229c002023ef0001198000000e200001007000c7
:1022ac00001988002223ef002423ef00211980005d
:1022bc0000f02100010070002019880030c0b3002c
:1022cc0024e3b7003223ef002623ef002823ef008e
:1022dc004119800000fe2f0000806000401988002a
:1022ec002e23ef003023ef000080eb005019880004
:1022fc000080eb00601988002ca3a9002c83a90096
:10230c002c03a9002c23a9002c43a9002d03a90000
:10231c002d23a90085a0a90095a0a80021e3a80061
:10232c000080fa00000006000000fa002023a8003c
:10233c000080fa00000006000000fa0020012000d6
:10234c00303a8800213a8000f0f32f0000806000c2
:10235c00203a8800213a800000fe2f0000806000a7
:10236c00203a880040a7a9003200200080072000f6
:10237c00a10920003374200080497800814978003d
:10238c0082497800120020006004200071052000b2
:10239c0023742000804978008149780082497800b4
:1023ac0000000000113a80000000270080806000cf
:1023bc0000002300808f5000faff3a00000000005c
:1023cc00113a800000022000008060000000e00054
:1023dc00fbff32000080fa00000006000000fa004b
:1023ec00c00a2000c01188003022ef003062a80023
:1023fc008111800090ff2f00008060000020a00061
:10240c00801188003222ef0087c0a90087e0a90064
:10241c0097c0a80097e0a8009c40a9003222a90010
:10242c0031e2a8003342a800300220008afc0700e9
:10243c000080fa00000006000000fa0000f02f00f7
:10244c00001688000000000000000000211680002b
:10245c0000f02f0000806000201688000080fa0039
:10246c00000006000000fa000080eb005019880004
:10247c00d2c2a800d2e2a800d3a2a800c0e2a80051
:10248c00c662a8000080fa00000006000000fa00f6
:10249c00d202a900d222a900d242a900d262a9007c
:1024ac00d602a900d622a900d642a900d662a9005c
:1024bc0020cb2000c040880020cb2000d0408800da
:1024cc0020cb2000e040880020cb2000f04088008a
:1024dc000080fa00000006000000fa0061e0a8008d
:1024ec006200a80062e0a80060a0a8009660a800a6
:0c24fc008660a9000080fa0000000600c5
:020000040000fa
:0200000401f009
:04000c00fbff0000f6
:020000040000fa
:0200000401f009
:040010007dff000070
:020000040000fa
:0200000401f009
:040014007fff00006a
:00000001FF
